S014000062745F414D5F436F6E6E5F454E2E7333373E
S214012000C00A0020F936010091370100913701001E
S214012010BB8701009137010091370100913701001C
S2140120209137010091370100913701009137010086
S21401203091370100000F0400B52D01009137010012
S2140120409137010091370100913701009137010066
S2140120509137010091370100913701009137010056
S2140120609137010091370100913701009137010046
S214012070D5A4010091370100913701009137010085
S2140120809137010091370100913701009137010026
S2140120909137010091370100913701009137010016
S2140120A09137010091370100913701009137010006
S2140120B09137010035EA03009137010015F403005A
S2140120C0CDF30300C9F3030005EC030011F403008C
S2140120D0D1F30300E9F30300D5F3030075F403001D
S2140120E0F1CE0300B9D0030055F403009137010087
S2140120F00975010091370100913701009137010000
S21401210091370100913701009137010091370100A5
S2140121109137010091370100913701009137010095
S2140121209137010091370100913701009137010085
S21401213091370100913701007D30010069300100BF
S21401214010B5054C237833B9044B13B1044800E0AD
S21401215000BF0123237010BD9C100020000000006A
S214012160705A040008B5034B1BB10349034800E04D
S21401217000BF08BD00000000A0100020705A040037
S214012180A3F5803A704700BF174B002B08BF134BCF
S2140121909D46FFF7F5FF00218B460F461348144A6C
S2140121A0121A2DF030FC0E4B002B00D098470D4B29
S2140121B0002B00D098470020002104000D000D4898
S2140121C0002802D00C4800E000BF2DF0B1FB200033
S2140121D0290000F0ADFD2DF097FB00BF00000800C0
S2140121E00000000000000000C00A00209C10002033
S2140121F038290020000000000000000000BF7047E2
S21401220000BF704700B587B0039002915F4B1B6813
S21401221001335E4A136001F0A5F801F0A5F85C4BA6
S2140122201B685A4A12685B49184605F015FA574B5F
S2140122301B78DAB2584BDA70544B5B78DAB2564BED
S2140122409A70524B9B78DAB2534B5A704F4BDB78ED
S214012250DAB2514B1A70514B0093514B514A5249C5
S21401226000201FF0DFFF0590059B002B30D0484B68
S2140122701B684E49184605F0EFF9454B1B684C495B
S214012280184605F0E9F900BF01F06CF801F06CF8AA
S2140122903F4B1868474B00937423474A474905F05C
S2140122A0DBF93B4B1868059B454A464905F0D4F9CE
S2140122B0059801F02FF8364B1B684349184605F080
S2140122C0CBF9334B1B683949184605F0C5F9FEE7CB
S2140122D0314BFF221A71304BFF225A71324B1B8849
S2140122E09BB2DAB22C4B9A712E4B1B889BB2DAB298
S2140122F0294BDA712A4B1B889BB2DAB2264B1A722B
S214012300264B1B889BB2DAB2234B5A72224B4022D1
S21401231000210E201FF012FF0590059B002B30D0E8
S2140123201B4B1B682149184605F096F9184B1B688C
S2140123301F49184605F090F900BF01F013F801F0A7
S21401234013F8134B18681B4B009382231A4A1B4938
S21401235005F082F90E4B1868059B194A194905F0D4
S2140123607BF9059800F0D6FF094B1B6816491846FD
S21401237005F072F9064B1B680C49184605F06CF916
S214012380FEE700BF07B05DF804FB00BFB8100020F1
S21401239088110020C80A0400C40A0020DE100020AC
S2140123A0DC100020DA100020D8100020DC0A04001F
S2140123B0E00A0400900B0400E80A0400F40A040092
S2140123C0000B0400040B04001C0B040000B58BB0CA
S2140123D003909C4A04AB07CA03C31A800233120C4B
S2140123E01A7000F0BFFF00F0BFFF974B1868039B01
S2140123F01B6823F47F4323F007031A46934905F02D
S2140124002BF9039B1B6823F47F4323F00703904AB1
S214012410934200F070838E4A934200F264848D4AA0
S214012420934200F0E5838B4A934200F25C848A4A29
S214012430934200F09583884A934200F25484874A77
S214012440934205D0864A934200F0518300F04BBC7C
S2140124500DF11B0207AB114618461FF0C5FE099089
S214012460099B002B30D0784B1B687E49184605F037
S214012470F3F8754B1B687C49184605F0EDF800BF6C
S21401248000F070FF00F070FF6F4B1868774B0093F9
S2140124909F23774A774905F0DFF86B4B1868099B4D
S2140124A0754A764905F0D8F8099800F033FF664B6F
S2140124B01B687349184605F0CFF8634B1B686949DA
S2140124C0184605F0C9F8FEE79DF8203003F00F0323
S2140124D0DBB28DF817309DF81730092B06D89DF81A
S2140124E017303033DBB28DF8173005E09DF8173022
S2140124F03733DBB28DF817309DF820301B09DBB27D
S2140125008DF818309DF81830092B06D89DF818302C
S2140125103033DBB28DF8183005E09DF818303733CC
S214012520DBB28DF818309DF8213003F00F03DBB2D3
S2140125308DF819309DF81930092B06D89DF81930F9
S2140125403033DBB28DF8193005E09DF8193037339A
S214012550DBB28DF819309DF821301B09DBB28DF8FE
S2140125601A309DF81A30092B06D89DF81A303033E8
S214012570DBB28DF81A3005E09DF81A303733DBB23E
S2140125808DF81A303F4BFF229A723E4BFF22DA72C9
S2140125909DF821203B4B1A739DF82020394B5A7326
S2140125A09DF81F20374B9A739DF81E20354BDA7322
S2140125B09DF81D20334B1A749DF81C20314B5A741C
S2140125C0304BFF229A742F4BFF22DA7404AB0B2296
S2140125D000210B201FF0B2FD0990099B002B53D060
S2140125E0194B1B681F49184605F036F8164B1B6831
S2140125F01D49184605F030F800BF00F0B3FE00F0A4
S214012600B3FE114B1868194B0093BE23184A19499B
S21401261005F022F80C4B1868099B174A174905F074
S2140126201BF8099800F076FE074B1B6814491846FC
S21401263005F012F8044B1B680A49184605F00CF819
S214012640FEE700BF840B040088110020300B040055
S214012650A0000906A0000601A0000A00A0000100D3
S214012660A0000600DC0A0400E00A0400A00B040037
S214012670E80A0400F40A0400000B0400040B04003A
S2140126801C0B0400C40A00200023002200210020A5
S2140126901FF082FD0990099B002B30D08E4B1B68E2
S2140126A08E49184604F0D8FF8B4B1B688C49184698
S2140126B004F0D2FF00BF00F055FE00F055FE864B39
S2140126C01868884B0093C223874A884904F0C4FFE0
S2140126D0814B1868099B864A864904F0BDFF099814
S2140126E000F018FE7C4B1B688349184604F0B4FFC3
S2140126F0794B1B687949184604F0AEFFFEE77F4820
S2140127001FF092FC0990099B002B30D0724B1B687E
S2140127107249184604F0A0FF6F4B1B6870491846B3
S21401272004F09AFF00BF00F01DFE00F01DFE6A4B8C
S21401273018686C4B0093C6236B4A6C4904F08CFFF7
S214012740654B1868099B6A4A6A4904F085FF09982F
S21401275000F0E0FD604B1B686749184604F07CFFFB
S2140127605D4B1B685D49184604F076FFFEE7634B38
S2140127701B78022118461FF091FC0990099B002B3B
S21401278030D0554B1B685549184604F065FF524B2F
S2140127901B685349184604F05FFF00BF00F0E2FDD6
S2140127A000F0E2FD4C4B18684E4B0093CA234E4A8C
S2140127B04E4904F051FF484B1868099B4C4A4D4955
S2140127C004F04AFF099800F0A5FD434B1B684A49EF
S2140127D0184604F041FF404B1B684049184604F078
S2140127E03BFFFEE7454B1878002300930023A02209
S2140127F0A0211FF031FC0990099B002B30D0364BED
S2140128001B683649184604F027FF334B1B683449CA
S214012810184604F021FF00BF00F0A4FD00F0A4FD5F
S2140128202D4B18682F4B0093D3232F4A2F4904F0C2
S21401283013FF294B1868099B2D4A2E4904F00CFFFB
S214012840099800F067FD244B1B682B49184604F0D5
S21401285003FF214B1B682149184604F0FDFEFEE7E5
S214012860264B1B78022118461FF02CFC0990099B69
S214012870002B45D0184B1B681849184604F0ECFE8F
S214012880154B1B681649184604F0E6FE00BF00F01B
S21401289069FD00F069FD104B1868124B0093D723B1
S2140128A0114A124904F0D8FE0B4B1868099B104ACE
S2140128B0104904F0D1FE099800F02CFD064B1B6868
S2140128C00D49184604F0C8FE034B1B680349184619
S2140128D004F0C2FEFEE700BF88110020DC0A0400F7
S2140128E0E00A0400A00B0400E80A0400F40A04004D
S2140128F0000B0400040B04001C0B0400C00A00209B
S214012900844B402200210E201FF018FC0990099BE1
S214012910002B30D0804B1B688049184604F09CFE83
S2140129207D4B1B687E49184604F096FE00BF00F0FA
S21401293019FD00F019FD784B18687A4B0093DB23DC
S214012940794A7A4904F088FE734B1868099B784ADD
S214012950784904F081FE099800F0DCFC6E4B1B6898
S2140129607549184604F078FE6B4B1B686B49184690
S21401297004F072FEFEE7714B0622002111201FF0C3
S214012980DDFB0990099B002B30D0634B1B68634924
S214012990184604F061FE604B1B686149184604F056
S2140129A05BFE00BF00F0DEFC00F0DEFC5A4B186850
S2140129B05C4B0093DE235C4A5C4904F04DFE564BAB
S2140129C01868099B5A4A5B4904F046FE099800F0CC
S2140129D0A1FC514B1B685849184604F03DFE4E4B6E
S2140129E01B684E49184604F037FEFEE7544B00229A
S2140129F01A6000230193002300930023514A4FF4E9
S214012A00A471514806F0A2FE0990099B002B30D014
S214012A10414B1B684149184604F01EFE3E4B1B689D
S214012A203F49184604F018FE00BF00F09BFC00F07A
S214012A309BFC394B18683B4B0093E4233A4A3B49CD
S214012A4004F00AFE344B1868099B394A394904F0E8
S214012A5003FE099800F05EFC2F4B1B6836491846AA
S214012A6004F0FAFD2C4B1B682C49184604F0F4FDC3
S214012A70FEE7364B0093364B364A374901201FF0A6
S214012A80D1FB0990099B002B00F02F81224B1B687C
S214012A902249184604F0E0FD1F4B1B6820491846E2
S214012AA004F0DAFD00BF00F05DFC00F05DFC1A4B9F
S214012AB018681C4B0093E8231B4A1C4904F0CCFD04
S214012AC0154B1868099B1A4A1A4904F0C5FD09985E
S214012AD000F020FC104B1B681749184604F0BCFD9B
S214012AE00D4B1B680D49184604F0B6FDFEE7144B66
S214012AF000221A60FEE000F035FC00F035FC064BC3
S214012B001868039BB3F805309BB21A46134904F0C4
S214012B10A3FDEFE0C40A002088110020DC0A0400AF
S214012B20E00A0400A00B0400E80A0400F40A04000A
S214012B30000B0400040B04001C0B0400040B002013
S214012B40B810002005220100BC100020DE10002075
S214012B50DC100020DA100020D8100020400B040002
S214012B6000F000FC00F000FC644B1B68644918464A
S214012B7004F072FD039B1879624B402215211FF069
S214012B80C7FA0990099B002B00F0B1805B4B1B68CC
S214012B905D49184604F060FD584B1B685B491846B2
S214012BA004F05AFD00BF00F0DDFB00F0DDFB534BE7
S214012BB01868574B00934FF48273564A564904F0EF
S214012BC04BFD4E4B1868099B544A554904F044FD89
S214012BD0099800F09FFB494B1B685249184604F0C0
S214012BE03BFD464B1B684849184604F035FDFEE799
S214012BF04D4806F0D9FD4D4B1B78022118461FF0B3
S214012C004DFA0990099B002B31D03C4B1B683E497D
S214012C10184604F021FD394B1B683C49184604F060
S214012C201BFD00BF00F09EFB00F09EFB334B1868B7
S214012C30374B009340F21113364A374904F00CFD26
S214012C402E4B1868099B354A354904F005FD09984D
S214012C5000F060FB294B1B683249184604F0FCFC67
S214012C60264B1B682849184604F0F6FCFEE72F4B56
S214012C701B78022118461FF025FA0990099B002BA4
S214012C8037D01E4B1B682049184604F0E5FC1B4B49
S214012C901B681E49184604F0DFFC00BF00F062FB0B
S214012CA000F062FB154B1868194B00934FF48B73B9
S214012CB0184A194904F0D0FC104B1868099B174AAA
S214012CC0174904F0C9FC099800F024FB0B4B1B685C
S214012CD01449184604F0C0FC084B1B680A491846FC
S214012CE004F0BAFCFEE700BF04E000BF02E000BF4C
S214012CF000E000BF00BF0BB05DF804FB88110020A8
S214012D005C0B0400C40A0020DC0A0400E00A04008C
S214012D10A00B0400E80A0400F40A0400000B0400F7
S214012D20040B04001C0B0400BC100020C00A002089
S214012D3008B507F018FCFFF761FA07F021FCFFF76A
S214012D405FFA05F07FFDF8E782B003468DF807309D
S214012D509DF90730002B0CDB9DF8073003F01F02AE
S214012D6005499DF907305B09012000FA02F241F896
S214012D70232000BF02B0704700E100E082B00346A6
S214012D808DF807309DF90730002B0DDB9DF80730D5
S214012D9003F01F0206499DF907305B09012000FA7E
S214012DA002F2603341F8232000BF02B0704700BF33
S214012DB000E100E008B50EF0C1FB00BF08BD00B59C
S214012DC083B06FF00100FFF7D9FF6FF00100FFF746
S214012DD0BBFF07F03FFC019000BF03B05DF804FBAA
S214012DE000B583B00190019800F0DAF90198FFF779
S214012DF0EDFA00BF03B05DF804FB82B00190012339
S214012E00184602B0704700B5C5B00EF0B9FA0EF01C
S214012E10E2FA4390439B002B15D04398FFF7EDFF52
S214012E20034683F00103DBB2002B0CD101AB18463D
S214012E301FF0F3F84290429B002B06D101AB1846D7
S214012E40FFF7CEFF02E000BF00E000BF45B05DF82F
S214012E5004FB08B5012000F0BDFA202000F0BAFA04
S214012E60402000F0B7FA00BF08BD08B50321802056
S214012E7001F044FD03214FF4806001F03FFD032182
S214012E804FF4906001F03AFD08214FF4C06001F064
S214012E9035FD08214FF4F06001F030FD08213E2099
S214012EA001F02CFD08212D2001F028FD00231846F5
S214012EB008BD0000024B1B681B0CDBB218467047AE
S214012EC00080E00F00B583B0FFF7F4FF0346012B47
S214012ED01ED1114B5B6E03F48023002B0CBF012324
S214012EE000238DF807300C4B03F580531A464FF438
S214012EF080235366094B04221A609DF80730002B85
S214012F0006D0054B03F500531A464FF4802353664B
S214012F1000BF03B05DF804FB008000502020015084
S214012F2008B5FFF7CFFF04F051F900F0E8FA04F016
S214012F306FF804F067F904F099F804F0F9F804F072
S214012F40FFF8FFF792FF04F077F800F0CDFA00F0F3
S214012F5045FD00F0D9FD05F035FC00BF08BD00BFFA
S214012F60704708B500F032FA06F052FB04F050F94B
S214012F7004F0CAFE0BF0FCFF05F060FB09F020FB35
S214012F800CF0EBFA00F01BF800BF08BD08B504F022
S214012F9007F804F017F8FFF712FF00BF08BD08B5E1
S214012FA000F0E4F900BF08BD00BF704700BF7047DE
S214012FB008B5FFF728FF00BF08BD00BF704708B57A
S214012FC000F04CF800BF08BD00B583B00190019B2E
S214012FD01B6A019A1268104698470346184603B0C2
S214012FE05DF804FB30B59BB0174B11AC1D460FCDF9
S214012FF00FC495E80F0084E80F004FF4E1331393F4
S2140130000023ADF852304FF48053ADF854300F4BD7
S21401301006AC1D460FCD0FC40FCD0FC495E80700B3
S21401302084E807000A4B02AC0FCB84E80F0006AB1E
S21401303011AA02A907480090074804F079FB1990E5
S214013040199B18461BB030BDA40D0400C40D040026
S214013050F00D040004110020E010002008B5FFF771
S214013060C1FF00BF08BD000008B5034B1B6818462A
S21401307004F0DAFC00BF08BDE010002008B5034BE1
S2140130801B68184604F0D0FC00BF08BDE010002005
S21401309008B50348FFF798FF0346184608BD00BF6A
S2140130A0E010002001231846704701231846704798
S2140130B000B583B001238DF807300EF0CDF9034635
S2140130C083F00103DBB2002B02D000238DF807301A
S2140130D0FFF7E8FF034683F00103DBB2002B02D0C3
S2140130E000238DF807309DF80730184603B05DF8C9
S2140130F004FB00B583B000238DF8073000238DF85C
S214013100063005F0DFFD03468DF807300EF0B2F904
S21401311003468DF805309DF80530042B03D10123B5
S2140131208DF8063006E09DF80530022B02D101230A
S2140131308DF80730FFF7ACFF03468DF805309DF894
S2140131400530042B03D101238DF8063006E09DF8E7
S2140131500530022B02D101238DF80730FFF7A5FFBA
S21401316003468DF805309DF80530042B03D1012365
S2140131708DF8063006E09DF80530022B02D10123BA
S2140131808DF807309DF80630002B02D000238DF80D
S21401319007309DF80730184603B05DF804FB0000C1
S2140131A000B587B00390039B1B6823F47F4323F08D
S2140131B007034C4A934200F084804B4A934240F006
S2140131C08780039BB3F805309BB2152B40F08280B5
S2140131D0464B01221A70039B1B79002215211846C3
S2140131E01EF0C2FF0590059B002B30D0404B1B689C
S2140131F04049184604F030FA3D4B1B683E491846D4
S21401320004F02AFA00BF00F0ADF800F0ADF8384B34
S21401321018683A4B00933F23394A3A4904F01CFA9E
S214013220334B1868059B384A384904F015FA059857
S21401323000F070F82E4B1B683549184604F00CFA5E
S2140132402B4B1B682B49184604F006FAFEE7039B36
S2140132501B7918461EF04AFF0590059B002B39D0B6
S214013260234B1B682349184604F0F6F9204B1B68CC
S2140132702149184604F0F0F900BF00F073F800F099
S21401328073F81B4B18681D4B009343231C4A1D49BA
S21401329004F0E2F9164B1868059B1B4A1B4904F01B
S2140132A0DBF9059800F036F8114B1B6818491846EB
S2140132B004F0D2F90E4B1B680E49184604F0CCF9FF
S2140132C0FEE70A4B1B78002B06D007F0ADF903E0AA
S2140132D000BF02E000BF00E000BF00BF07B05DF81E
S2140132E004FB00BFA0000601A0000A028411002012
S2140132F088110020000E0400040E0400B80E04001D
S2140133000C0E04007C0E0400880E04008C0E0400D3
S214013310A40E040000B585B001900F4B1B680F4941
S214013320184604F099F904F03BF903900A4B1B6820
S214013330184604F021F9019800F036F8039804F0D5
S2140133401BF9054B1B680649184604F085F900BFB2
S21401335005B05DF804FB00BF88110020D80E0400FC
S214013360DC0E040000BF704700BF704708B5094B6C
S21401337001221A70084B00221A70084B04221A7098
S214013380074B1F221A7004F00BF90346054A136017
S21401339000BF08BD9E0B00208C1100209F0B002053
S2140133A0A00B00208811002000B583B00190054BCA
S2140133B01B680549184604F04FF900BF03B05DF8D5
S2140133C004FB00BF88110020E00E04000F231846FE
S2140133D07047000000B585B001900E230393019B52
S2140133E0202B49DC019B002B77DD019B013B1F2B2A
S2140133F073D801A252F823F08134010093340100FE
S214013400DB340100DB340100DB340100DB34010076
S214013410DB340100A5340100DB340100DB3401009C
S214013420DB340100DB340100DB340100DB34010056
S214013430DB340100DB340100DB340100DB34010046
S214013440DB340100DB340100DB340100DB34010036
S214013450DB340100DB340100DB340100DB34010026
S214013460DB340100DB340100DB340100DB34010016
S214013470DB340100B7340100019B402B24D02CE043
S214013480002304220421002003F0C4F80023039340
S21401349024E0002304220421002003F0BBF80023CB
S2140134A003931BE0002304220421002003F0B2F85A
S2140134B00023039312E0002304220421012003F0D9
S2140134C0A9F80023039309E0002304220021002029
S2140134D003F0A0F80023039300E000BF039B184607
S2140134E005B05DF804FB00BF08B501213A2000F0E5
S2140134F0AFFDFFF7AEFC00F067F800BF08BD08B5EA
S21401350001213A2000F0A4FD00BF08BD82B00346A9
S21401351000918DF807309DF80730002B0AD09DF8F2
S2140135200730012B06D09DF80730022B02D09DF8FC
S2140135300730032B08489DF807200121009B99407E
S21401354013465B0013441B01034403F50053103379
S214013550196000BF02B0704700C0035082B0034636
S21401356000918DF807309DF80730002B0AD09DF8A2
S2140135700730012B06D09DF80730022B02D09DF8AC
S2140135800730032B08489DF807200121009B99402E
S21401359013465B0013441B01034403F580531033A9
S2140135A0196000BF02B0704700C0035008B5032180
S2140135B00220FFF7ABFF00BF08BD08B503210220BC
S2140135C0FFF7CCFF00BF08BD30B589B0454B01AC55
S2140135D01D460FCD0FC495E8070084E807000121BA
S2140135E03A2000F035FD0121282000F031FD0123AD
S2140135F08DF812303C4B039301AB19463B4803F060
S214013600F7F9012304220021022003F003F8002326
S21401361001220121022002F0FDFF012304220221E2
S214013620022002F0F7FF012304220321022002F008
S214013630F1FF2F4B4FF00212C3F830262C4B2D4AC8
S214013640C3F82C262A4B0222C3F83426284B1C2208
S214013650C3F81C264FF4487006F0A4FFFFF7A6FF38
S214013660142006F09FFFFFF7A8FF232006F09AFF1D
S214013670FFF79CFFB9211D4803F094FAFFF79DFF61
S214013680002300220021022002F0C4FF00230022B2
S2140136900121022002F0BEFF0123002202210220A6
S2140136A002F0B8FF012300220321022002F0B2FF3C
S2140136B00E4803F021FA0E4B0022C3F830260C4BBD
S2140136C00022C3F82C260A4B0022C3F83426084BE6
S2140136D00022C3F81C260021282000F0B9FC00BFF8
S2140136E009B030BDE40E040000127A0000C0055097
S2140136F000C003500200010000B585B000F080F85C
S2140137001F4B039319E0002302930EE0039B1A68F4
S214013710029B9B001A44039B5968029B9B000B4427
S21401372012681A60029B01330293039B9B68029AFC
S2140137309A42EBD3039B0C330393039B114A9342A8
S214013740E1D3114B019314E00023009309E0019BA0
S2140137501A68009B9B00134400221A60009B0133E9
S2140137600093019B5B68009A9A42F0D3019B083351
S2140137700193019B054A9342E6D3FEF705FD00BF80
S214013780785A0400845A0400845A0400845A0400B7
S214013790FEE7000082B003468DF807309DF907303A
S2140137A0002B0CDB9DF8073003F01F0205499DF93D
S2140137B007305B09012000FA02F241F8232000BF1E
S2140137C002B0704700E100E082B003468DF8073092
S2140137D09DF90730002B0DDB9DF8073003F01F0223
S2140137E006499DF907305B09012000FA02F26033B1
S2140137F041F8232000BF02B0704700BF00E100E09F
S21401380008B51E4B1E4A9A601C4BD3F888301B4ADB
S21401381043F47003C2F888301A4B03F580531A46F6
S2140138204FF400439366184B03F500531A464FF0C6
S214013830FF331366144B03F500531A464FF6DF7336
S2140138405366124B02221A60BFF34F8F00BFBFF3BD
S2140138506F8F00BF0320FFF7B7FF0B4B03F5005335
S2140138601A464FF44033D3600320FFF793FF064B0D
S2140138704FF440321A6100BF08BD00BF00ED00E002
S214013880002001000080005000800044D0ED00E0E0
S214013890014B1B6818467047AC0B002000B583B07F
S2140138A0002301930E4B1B6F03F00703032B09D074
S2140138B0032B0ED8012B09D0022B0AD1FFF7E8FF04
S2140138C0019007E0074B1B68019303E0064B019349
S2140138D000E0FEE7019B184603B05DF804FB00BF5D
S2140138E000800050A40B0020002D310100B583B0EC
S2140138F0FFF7D4FF01900A4B1B6F1B0B03F00F035E
S2140139000093009B0133019AB2FBF3F30193054A3E
S214013910019B1360019B184603B05DF804FB00BFD2
S21401392000800050B00B0020014B1846704700BFC6
S21401393000B4C404014B1B6818467047A40B002052
S21401394000B583B00190074A019B1360064B1B6FBD
S21401395003F00703032B01D1FFF7C8FF00BF03B035
S2140139605DF804FBA40B00200080005000231846DD
S21401397070470000014B1846704700BF002D31010B
S2140139804FF40043184670474FF47A731846704751
S214013990014B1B6818467047A80B0020BFF34F8FDA
S2140139A000BF064BDB6803F4E0620449044B134393
S2140139B0CB60BFF34F8F00BF00BFFDE700ED00E017
S2140139C00400FA0582B00190019BB3F5903F01D245
S2140139D0012300E00023184602B0704700B583B00B
S2140139E028231B681846FFF7EDFF034683F0010303
S2140139F0DBB2002B02D04FF4817316E00D4B1B781F
S214013A00002B03D00B4B1B78022B0BD128231B68F2
S214013A10DB6998470190019B002B05D1054B0122DC
S214013A201A7001E000230193019B184603B05DF86C
S214013A3004FB00BF8D11002000B583B04FF000538A
S214013A400193019B40F202221A80019B4FF20F0262
S214013A505A80FFF7A3FF82B00190019B00221A60F3
S214013A6000BF02B0704782B001900091009B002B0E
S214013A7002D0019B002B00BF019B1A68009B1A60B5
S214013A80019B009A1A6000BF02B0704784B0019093
S214013A900091009B002B02D0019B002B00BF019BD5
S214013AA003930CE0039B1B68009A9A4204D1009B87
S214013AB01A68039B1A6006E0039B1B680393039B2B
S214013AC01B68002BEED104B07047000084B0019053
S214013AD00B4B1A68019B13440A4A934202D94FF0D2
S214013AE0FF3309E0064B1B680393054B1A68019BDD
S214013AF01344034A1360039B184604B0704700BF83
S214013B00B40B00200080002008B5054B1B68054A51
S214013B1012681146184624F065F80346184608BD93
S214013B20B80B0020D80B002082B0074B9B68DBB295
S214013B300193019B0A3303F01F03012202FA03F3E8
S214013B40184602B0704700BF0080E00F84B00346FD
S214013B508DF807309DF90730B3F1FF3F04D0002BF5
S214013B6005D10023039305E0044B039302E0044BC5
S214013B70039300BF039B184604B0704721E000F092
S214013B8024E000F086B001900091019B0493009B15
S214013B909B080393002305930CE0049B1B68B3F179
S214013BA0FF3F01D000230AE0049B04330493059BE6
S214013BB001330593059A039B9A42EED301231846D7
S214013BC006B0704700B583B00190009102F09CFDED
S214013BD00023184603B05DF804FB08B502F0ACFDFF
S214013BE000BF08BD00B585B0019003AB184602F0D2
S214013BF091FE9DF80E309AB2019B1A80019B01221C
S214013C00DA70019B00229A70FFF78EFF0246019B35
S214013C105A600023184605B05DF804FB82B00346DF
S214013C208DF8073000BF02B0704700B587B003902B
S214013C3002910192039B0593029B0493059B03F05B
S214013C400303002B14D1049B03F00303002B0FD1B5
S214013C500AE0059A131D0593049B191D0491126829
S214013C601A60019B013B0193019B002BF1D106E0F9
S214013C70019B9B001A46039902982BF09DFE002398
S214013C80184607B05DF804FB00B58BB003900291AF
S214013C900192029B0893039B0793019B9B0006934B
S214013CA0069A089907982CF007FF03468DF81730F7
S214013CB09DF917301846FFF749FF0990099B002B1D
S214013CC009D1069A089907982BF066FE0346002B41
S214013CD001D0034B0993099B18460BB05DF804FB12
S214013CE010E000F000B585B0019001982CF0DCFEE4
S214013CF003468DF80B309DF90B301846FFF726FF6B
S214013D000390039B002B0ED1FFF70EFF03461946C7
S214013D100198FFF737FF034683F00103DBB2002B60
S214013D2001D0034B0393039B184605B05DF804FBD3
S214013D300EE000F008B501F05DFE0346014A13608F
S214013D4000BF08BD2018002008B5034B1B681846A5
S214013D5001F05CFE00BF08BD2018002000B583B04E
S214013D60019000910198019A009B1344013B009A2F
S214013D70194604F0CFFC00BF03B05DF804FB08B59C
S214013D80FFF7B4FD0346184608BD86B003900291BE
S214013D900192019B002B04D0039B03F580530593EE
S214013DA003E0039B03F500530593059B0121029A4B
S214013DB001FA02F21A6000BF06B0704782B00190A5
S214013DC00091019B1A68009B22FA03F303F001039A
S214013DD0184602B07047000008B500BF0421044829
S214013DE0FFF7ECFF0346002BF8D100BF00BF08BD6C
S214013DF08440005008B5FFF7EFFF044BD3F884303A
S214013E009B0903F00303DBB2184608BD00400050CF
S214013E10034B1B6A024A43F00103136200BF70475B
S214013E2000C00750034B1B6A024A23F001031362CA
S214013E3000BF704700C00750054BDB6903F48033B1
S214013E40002B14BF01230023DBB21846704700BFC6
S214013E5000000350024B0022DA6300BF704700BF28
S214013E6000000350024B41F67132DA6300BF70471F
S214013E7000000350014B9B68184670470000035032
S214013E8082B00190024A019B936000BF02B0704766
S214013E900000035084B0019000230393019BB3F507
S214013EA0607F21D0019BB3F5607F34D8019BB3F5C9
S214013EB0207F29D0019BB3F5207F2CD8019BB3F539
S214013EC0007F19D0019BB3F5007F24D8019B002BFE
S214013ED003D0019BB3F5C07F1DD1124B1B6F1B0B8B
S214013EE003F00F03039317E00E4BD3F880301B0942
S214013EF003F0030303930FE00A4BD3F890301B0E35
S214013F0003F01F03039307E0064B1B6F9B0A03F0A6
S214013F100103039300E000BF039B0133184604B07E
S214013F20704700BF0080005010B582B0019000912C
S214013F30019BB3F5607F4BD0019BB3F5607F00F228
S214013F408180019BB3F5207F6BD0019BB3F5207F69
S214013F5078D8019BB3F5007F50D0019BB3F5007F65
S214013F6070D8019B002B03D0019BB3F5C07F69D1AC
S214013F70009B012B0AD0009B022B07D0009B042B31
S214013F8004D0009B082B01D0009B102B00BF01F032
S214013F90B1FC01F051FC01F087FA2C4B1B6F23F4A6
S214013FA07042009B013B1B03284913430B67FFF735
S214013FB0E6FE0446FFF71EFF0346C3F10203194659
S214013FC0204601F0D9F901F03FFC01F079FA3AE018
S214013FD0009B012B04D0009B022B01D0009B042BDD
S214013FE000BF1A4BD3F8803023F03002009B013B10
S214013FF01B0116491343C1F8803024E0009B002BB7
S21401400002D0009B202B00BF104BD3F8903023F03A
S214014010F852009B013B1B060C491343C1F8903034
S21401402011E0009B012B01D0009B022B00BF074B28
S2140140301B6F23F48062009B013B9B0203491343E1
S2140140400B6700E000BF00BF02B010BD008000504B
S21401405000B585B001900B468DF80330002303931D
S214014060019B5B09002B0FD0019B5B09012B02D141
S2140140700D4B039308E0019B5B09022B02D10B4B0E
S214014080039301E00A4B0393019B03F01F03029382
S2140140909DF803301A4602990398FFF776FE00BF93
S2140140A005B05DF804FB00BF6480005068800050D6
S2140140B06082005010B584B0019000230393002362
S2140140C00293019BB3F5F06F00F0C282019BB3F53A
S2140140D0F06F00F2C382019BB3F5E06F00F0B2828D
S2140140E0019BB3F5E06F00F2B982019BB3F5D06F87
S2140140F000F0A282019BB3F5D06F00F2AF82019B64
S214014100B3F5C06F00F09282019BB3F5C06F00F269
S214014110A582019BB3F5B06F00F07C82019BB3F5DD
S214014120B06F00F29B82019BB3F5A06F00F06C822A
S214014130019BB3F5A06F00F29182019BB3F5906FDE
S21401414000F05C82019BB3F5906F00F28782019BC1
S214014150B3F5806F00F04C82019BB3F5806F00F2DF
S2140141607D82019BB3F5607F00F03382019BB3F53E
S214014170607F00F27382019BB3F5407F00F01C82E2
S214014180019BB3F5407F00F26982019BB3F5207F66
S21401419000F00682019BB3F5207F00F25F82019B4F
S2140141A0B3F5007F00F0F081019BB3F5007F00F2CC
S2140141B05582019BB3F5C07F00F0E181019BB3F509
S2140141C0C07F00F24B82019B002B00F0D881019B3F
S2140141D0B3F5807F00F24282019B202BC0F03E8225
S2140141E0019B203BE02B00F2398201A252F823F01A
S2140141F07F450100A14501007F450100A145010061
S214014200F1450100F1450100F1450100F1450100CC
S214014210A1450100A145010015460100B94501006F
S2140142202D46010039460100B9450100A1450100AE
S214014230A1450100A14501005D4601005D46010062
S2140142405D4601005D4601005D4601005D460100D8
S21401425009460100FD450100A1450100A1450100F7
S214014260A14501005146010045460100A145010056
S2140142705D4601005D4601005D4601005D460100A8
S2140142805D4601005D4601005D4601005D46010098
S2140142905D4601005D4601005D4601005D46010088
S2140142A05D4601007F4501005D4601007F45010036
S2140142B07F4501007F450100F14501005D46010093
S2140142C05D4601005D4601005D4601005D46010058
S2140142D05D4601005D4601005D4601005D46010048
S2140142E05D4601005D4601005D4601005D46010038
S2140142F07F4501007F4501005D4601005D460100E6
S2140143005D4601005D4601005D4601005D46010017
S2140143105D4601005D4601005D4601005D46010007
S2140143205D4601005D4601005D4601005D460100F7
S2140143305D4601005D4601005D4601005D460100E7
S2140143405D4601005D4601005D4601005D460100D7
S2140143505D4601005D4601005D4601005D460100C7
S2140143605D4601005D4601005D4601005D460100B7
S214014370754501005D4601005D4601005D46010090
S2140143805D4601005D4601005D4601005D46010097
S2140143905D4601005D4601005D4601005D46010087
S2140143A05D4601005D4601005D4601005D46010077
S2140143B05D4601005D4601005D4601005D46010067
S2140143C05D4601005D4601005D4601005D46010057
S2140143D05D4601005D4601005D4601005D46010047
S2140143E05D4601005D4601005D4601005D46010037
S2140143F05D4601005D4601005D4601005D46010027
S2140144005D4601005D4601005D4601005D46010016
S2140144105D4601005D4601005D4601005D46010006
S2140144205D4601005D4601005D4601005D460100F6
S2140144305D4601005D4601005D4601005D460100E6
S2140144405D4601005D4601005D4601005D460100D6
S2140144505D4601005D4601005D4601005D460100C6
S2140144605D4601005D4601005D4601005D460100B6
S2140144705D4601005D4601005D4601005D460100A6
S2140144805D4601005D4601005D4601005D46010096
S2140144905D4601005D4601005D4601005D46010086
S2140144A05D4601005D4601005D4601005D46010076
S2140144B05D4601005D4601005D4601005D46010066
S2140144C05D4601005D4601005D4601005D46010056
S2140144D05D4601005D4601005D4601005D46010046
S2140144E05D4601005D4601005D4601005D46010036
S2140144F05D4601005D4601005D4601005D46010026
S2140145005D4601005D4601005D4601005D46010015
S2140145105D4601005D4601005D4601005D46010005
S2140145205D4601005D4601005D4601005D460100F5
S2140145305D4601005D4601005D4601005D460100E5
S2140145405D4601005D4601005D4601005D460100D5
S2140145505D4601005D4601005D4601005D460100C5
S2140145605D4601005D4601005D4601005D460100B5
S21401457021460100FFF792F9034603936FE0FFF728
S214014580B5F9034603936AE0FFF788F904464FF44A
S2140145900070FFF77FFC0346B4FBF3F303935EE082
S2140145A0FFF7A4F904464FF42070FFF773FC0346A7
S2140145B0B4FBF3F3039352E0FFF798F904464FF484
S2140145C02070FFF767FC0346B4FBF3F35B08039325
S2140145D045E002AB0021184600F088FF029C4FF42C
S2140145E06070FFF757FC0346B4FBF3F3039336E022
S2140145F003AB0021184600F0D7FF30E003AB0021E3
S214014600184600F0CDFE2AE003AB0021184600F064
S2140146101FFF24E003AB0021184601F0D9F81EE085
S21401462003AB0021184601F0B9F918E003AB0021ED
S214014630184600F0F5FF12E003AB0021184601F022
S21401464063F90CE003AB0021184601F017F906E008
S21401465003AB0021184601F01FF800E000BF039BE2
S214014660184604B010BD00BF00B585B00190002308
S2140146700393019BB3F5086F00F02681019BB3F508
S214014680086F00F23381019BB3F5006F00F01081D3
S214014690019BB3F5006F00F22981019BB3F5F06F22
S2140146A000F00081019BB3F5F06F00F21F81019BC2
S2140146B0B3F5E06F00F01481019BB3F5E06F00F2F3
S2140146C01581019BB3F5D06F00F0F880019BB3F51F
S2140146D0D06F00F20B81019BB3F5C06F00F0DC8058
S2140146E0019BB3F5C06F00F20181019BB3F5B06F7A
S2140146F000F0C080019BB3F5B06F00F2F780019B1C
S214014700B3F5A06F00F0E680019BB3F5A06F00F251
S214014710ED80019BB3F5906F00F0CA80019BB3F565
S214014720906F00F2E380019BB3F5806F00F0A880E4
S214014730019BB3F5806F00F2D980019BB3F5807FB2
S21401474000F0A480019BB3F5807F00F2CF80019B2F
S214014750522B69D8019B242BC0F0C880019B243BB7
S2140147602E2B00F2C38001A252F823F081480100EB
S214014770814801008148010081480100ED4801009F
S214014780ED48010075480100ED4801009948010017
S214014790BD480100ED480100ED480100ED4801006B
S2140147A0ED480100ED480100ED480100ED4801002B
S2140147B0ED480100ED480100ED480100D548010033
S2140147C0ED480100ED480100ED480100ED4801000B
S2140147D0A5480100E1480100ED480100ED4801004F
S2140147E0ED480100ED480100ED480100ED480100EB
S2140147F0ED480100ED480100ED480100ED480100DB
S214014800ED480100ED480100ED480100ED480100CA
S214014810ED480100ED480100ED480100ED480100BA
S214014820ED48010081480100019B802B5ED1324B8F
S2140148301B6F03F00703013B032B17D801A252F8A5
S21401484023F000BF67480100554801005B4801009E
S21401485061480100052303930BE00323039308E05B
S2140148600723039305E00223039302E00023039347
S21401487000BF3CE003AB1946002000F0A9FF36E07C
S21401488003AB1946002000F08FFE30E003AB19465B
S214014890002001F083F82AE003AB1946002000F05F
S2140148A0BFFE24E003AB1946002000F0F5FE1EE033
S2140148B003AB1946002000F073FD18E003AB194660
S2140148C0002001F021F812E003AB1946002000F0A9
S2140148D029FE0CE003AB1946002000F0B9FD06E006
S2140148E003AB1946002000F0C9FF00E000BF039BA0
S2140148F0184605B05DF804FB0080005010B584B082
S214014900019000910023039300238DF80B300023C0
S2140149108DF80A30019BB3F5086F00F09D82019B6C
S214014920B3F5086F00F20583019BB3F5006F00F045
S2140149302D82019BB3F5006F00F2FB82019BB3F55C
S214014940F06F00F0FE81019BB3F5F06F00F2F1828B
S214014950019BB3F5E06F00F0C782019BB3F5E06FF2
S21401496000F2E782019BB3F5D06F00F04882019B0D
S214014970B3F5D06F00F2DD82019BB3F5C06F00F096
S214014980BB81019BB3F5C06F00F2D382019BB3F5E7
S214014990B06F00F01281019BB3F5B06F00F2C982CF
S2140149A0019BB3F5A06F00F08782019BB3F5A06F62
S2140149B000F2BF82019BB3F5906F00F0E781019B87
S2140149C0B3F5906F00F2B582019BB3F5806F00F0EE
S2140149D00C81019BB3F5806F00F2AB82019BB3F5AE
S2140149E0807F00F02481019BB3F5807F00F2A182D5
S2140149F0019B522B6AD8019B242BC0F09A82019B03
S214014A00243B2E2B00F2958201A252F823F000BF20
S214014A10EB4B0100EB4B0100EB4B0100EB4B0100B4
S214014A20334F0100334F0100BB4B0100334F0100F0
S214014A30F94C0100FF4D0100334F0100334F0100D7
S214014A40334F0100334F0100334F0100334F010054
S214014A50334F0100334F0100334F0100334F010044
S214014A60B94E0100334F0100334F0100334F0100AF
S214014A70334F0100434D0100E94E0100334F010061
S214014A80334F0100334F0100334F0100334F010014
S214014A90334F0100334F0100334F0100334F010004
S214014AA0334F0100334F0100334F0100334F0100F4
S214014AB0334F0100334F0100334F0100334F0100E4
S214014AC0334F0100334F0100EB4B0100019B802B5C
S214014AD040F02F82009B023B052B32D801A252F8F0
S214014AE023F000BF3D4B0100034B0100434B010087
S214014AF0FD4A0100434B0100374B0100022303939B
S214014B0020E003230393AD4B03F580531A464FF47D
S214014B1000235366AA4B9B6A03F00203002B14BFC3
S214014B20012300238DF80B30A54B03F580531A465D
S214014B300123936206E00423039303E00123039316
S214014B4000E000BF0121022001F026F900F0D2FEAC
S214014B5000F072FE00F0A8FC984B1B6F23F00702D2
S214014B609649039B13430B67FFF709F90446FFF7C2
S214014B7041F90346C3F102031946204600F0FCFB47
S214014B800121002001F0DAF800F05EFE00F098FC4A
S214014B909DF80B3083F00103DBB2002B09D0009B9C
S214014BA0032B08D1864B03F500531A460123936263
S214014BB002E000BFBEE100BFBCE1009B022B05D0B6
S214014BC0009B0F2B05D10123039303E002230393DC
S214014BD000E000BF794BD3F8803123F00302774918
S214014BE0039B1343C1F88031A4E1009B052B09D038
S214014BF0009B052B0FD8009B022B09D0009B032B93
S214014C0003D008E00123039306E00223039303E0A5
S214014C100323039300E000BF684BD3F8203123F051
S214014C2003026649039B1343C1F8203182E1009BCE
S214014C30083B082B5ED801A252F823F0614C010014
S214014C40614C0100F54C0100614C0100AB4C0100C8
S214014C50F54C0100F54C0100F54C0100614C0100DA
S214014C60564B5B6E03F48033002B0CBF01230023ED
S214014C708DF80A30514B03F580531A464FF48033B2
S214014C805366FFF7C5F89DF80A30002B06D04B4B4C
S214014C9003F500531A464FF480335366494B1B689D
S214014CA0484A23F00403136025E0444B5B6E03F48B
S214014CB08033002B0CBF012300238DF80A303F4BB5
S214014CC003F580531A464FF480335366FFF7AAF86C
S214014CD09DF80A30002B06D0384B03F500531A46D0
S214014CE04FF480335366374B1B68364A43F0040350
S214014CF0136000E000BF1DE1009B0B2B12D0009B50
S214014D000B2B12D8009B082B09D0009B082B0CD329
S214014D10009B093B012B08D80123039306E00223DD
S214014D20039303E00323039300E000BF234BD3F870
S214014D30403123F003022149039B1343C1F840315C
S214014D40F8E0009B0B2B12D0009B0B2B12D8009B7C
S214014D50082B09D0009B082B0CD3009B093B012B89
S214014D6008D80123039306E00223039303E00323F9
S214014D70039300E000BF114BD3F8603123F0030228
S214014D800E49039B1343C1F86031D3E0009B023BFD
S214014D90052B28D801A252F823F000BFCF4D010001
S214014DA0C94D0100E14D0100B54D0100DB4D01008B
S214014DB0D54D01000123039316E000BF008000508B
S214014DC000C0005010E000E0022303930CE0032330
S214014DD0039309E00423039306E00523039303E00A
S214014DE00623039300E000BF544BD3F8243123F08D
S214014DF007025249039B1343C1F824319AE0009BF2
S214014E00083B062B1CD801A252F823F02F4E0100B6
S214014E10294E0100294E0100354E0100414E010088
S214014E20414E01003B4E01000123039309E002239A
S214014E30039306E00323039303E00423039300E0B4
S214014E4000BF3E4BD3F8003223F007023B49039BD9
S214014E501343C1F800326DE0009B013B072B1FD8BE
S214014E6001A252F823F000BF9B4E0100A14E0100A3
S214014E70894E0100A14E0100A14E0100A14E010084
S214014E80954E01008F4E01000123039309E0022392
S214014E90039306E00323039303E00023039300E058
S214014EA000BF264BD3F8003123F003022349039BAE
S214014EB01343C1F800313DE0009B0F2B03D0009B4C
S214014EC0102B03D005E00123039302E00223039392
S214014ED000BF1A4BD3F8203223F003021749039B75
S214014EE01343C1F8203225E0009B0B2B12D0009B08
S214014EF00B2B12D8009B082B09D0009B082B0CD338
S214014F00009B093B012B08D80123039306E00223EB
S214014F10039303E00323039300E000BF074BD3F89A
S214014F20403223F003020549039B1343C1F8403284
S214014F3000E000BF00BF04B010BD00BF00800050FD
S214014F4000B585B001900198FFF78EFB0290029B99
S214014F50082B07D0029B082B20D3029B093B012B71
S214014F601CD804E0134B1B88ADF80E301BE0124B27
S214014F7003F580531A464FF4001353660F4B5B6AD2
S214014F8003F00103002B04D04FF4FA73ADF80E3092
S214014F9009E04FF6FF73ADF80E3004E04FF6FF73ED
S214014FA0ADF80E3000BFBDF80E30184605B05DF8FE
S214014FB004FB00BFDC0B00200080005000400250C4
S214014FC000B583B001908020FFF74EFB0346032B0C
S214014FD000F0E280724B03F580531A464FF400232B
S214014FE05366704B45F60E02C3F880206D4B03F5F1
S214014FF080531A46022393626A4B03F500531A46FE
S2140150000123936200BF674B9B6D03F48033002B33
S214015010F9D1019B1B681A06019B5B681B051343AC
S214015020019A127B12041343019A527B1203134313
S214015030019A927B92011343019AD27B1146594AF7
S2140150400B431361574B9B6903F00042019B1B699D
S2140150509B061A43019B5B691B061343019A127E4A
S21401506012041343019A527E12021343019A927E4E
S21401507011464C4A0B4393614A4B1B6A23F00D03BE
S214015080019AD269002A01D1002200E008221343C6
S214015090019AD27E92001A43019BDB694149134370
S2140150A00B62019BDB69002B57D13E4B9B6A23F0B9
S2140150B03303019A92F8202052011343019A92F881
S2140150C0212012011343374A43F00103936200BFC4
S2140150D0344B9A6D344B1340334A9342F8D1314BDB
S2140150E003F580531A46022393622E4B02221A6559
S2140150F000BF2C4B9B6D03F08043002BF9D1294B4D
S2140151001B6923F47002019B9B681B052549134309
S2140151100B61244B03F580531A464FF0004393610D
S214015120019B93F8223083F00103DBB2002B05D0FC
S2140151301C4B03F500531A4602239362019B93F816
S214015140233083F00103DBB2002B1BD0154B03F594
S21401515000531A460123936214E0124B9B6A23F014
S2140151603303019A92F8202052011343019A92F8D0
S214015170222052001343019A92F823201146094A2D
S2140151800B439362019B93F82430002B05D0054B0B
S214015190064AC3F8802000E000BF03B05DF804FBB8
S2140151A00080005000C0005003000140F1A7FFFF3F
S2140151B0024B93F900301846704700BFD418002000
S2140151C084B001904F230393019B5B788DF80B30DD
S2140151D09DF80B20039B934228BF13468DF80A3097
S2140151E0284B03F580531A464FF480035366264B2B
S2140151F04FF4D1525A62244B03F580531A460223C8
S2140152005360214B03F500531A460123536000BF38
S2140152101D4B1B6903F48033002BF9D1019B1B78CE
S2140152201A029DF80A30184913434B61019B5B68CB
S2140152301A02019B9B681B011343019A127B5200C1
S2140152401343019A527B11460F4A0B439360019B0D
S2140152509B7B5A01019BDB7B1B011A43019B1B7C39
S2140152605B001343019A527C1A43074B5A60019B19
S2140152709B7C002B03D0044B6FF4D1525A6200BFC3
S21401528004B07047008000500000025082B0034610
S214015290ADF80630034ABDF80630138000BF02B0F1
S2140152A0704700BFDC0B002000B587B003468DF8C1
S2140152B00730002303930023059300230493274B11
S2140152C003F580531A464FF400135366244B02220B
S2140152D05A6000BF224B9B6803F48033002BF9D140
S2140152E09DF80730012B2ED1FEF724FB0390039B7C
S2140152F01C4A934205D11C4B059345F67A13049339
S21401530017E0039B194A934205D1194B059345F6BD
S2140153101A0304930DE0039A13469B0013445B0A99
S2140153200593144B0493039B5B0A049AB2FBF3F3B5
S21401533004930B4A059BD362094A049B1363084BEB
S21401534001225A6202E0064B00225A62044B0022F6
S2140153505A6000BF07B05DF804FB00BF0080005034
S2140153600040025000F04902D8B80500C0175302A9
S214015370BBCF05006466666600B583B001900091F8
S214015380009B002B04DD0121019800F0E9F903E000
S2140153900021019800F0E4F900BF03B05DF804FBBA
S2140153A000B585B00190009100230393274BD3F8F5
S2140153B0243103F00703013B052B33D801A252F831
S2140153C023F000BFDD530100F55301000D54010029
S2140153D019540100E953010001540100FEF758FA7F
S2140153E003900523029320E0FEF752FA039006236A
S2140153F002931AE0FEF79EFA03900323029314E049
S214015400FEF798FA0390042302930EE0FEF7B2FA31
S21401541003900223029308E0FEF7A8FA03900723FD
S214015420029302E00023029300BF019B002B02D0EF
S214015430019B039A1A60009B002B02D0009B029AE4
S2140154401A6000BF05B05DF804FB00BF0080005085
S21401545000B583B001900091124BD3F8203203F0CF
S2140154600303012B02D0022B05D009E00099019815
S21401547000F09AF811E00099019800F0D1F80CE0DC
S214015480019B002B02D0019B00221A60009B002B7F
S21401549002D0009B00221A6000BF00BF03B05DF877
S2140154A004FB00BF00800050044B03F580531A46EE
S2140154B04FF48033136700BF704700BF0080005071
S2140154C008B58020FEF7F6FD0346064A934206D845
S2140154D0054B03F500531A464FF48033136700BF9C
S2140154E008BD00BF005A62020080005000B585B0BA
S2140154F00190009100230393FEF7D0F903900D234A
S2140155000293019B002B02D0019B039A1A60009B19
S214015510002B02D0009B029A1A6000BF05B05DF80E
S21401552004FB000000B585B00190009100230393B1
S2140155301C4BD3F8003103F00303032B1FD801A241
S21401554052F823F0795501005555010061550100C7
S2140155506D550100FEF7EEF903900323029311E067
S214015560FEF716FA0390082302930BE0FEF7FEF906
S21401557003900723029305E00123029302E0002330
S214015580029300BF019B002B02D0019B039A1A6075
S214015590009B002B02D0009B029A1A6000BF05B048
S2140155A05DF804FB0080005000B585B001900091C5
S2140155B000230393194BD3F8203103F00303032B85
S2140155C012D0032B16D8012B02D0022B06D011E0E5
S2140155D0FEF75EF90390052302930EE0FEF7AAF9A3
S2140155E003900323029308E0FEF7C4F90390022315
S2140155F0029302E00023029300BF019B002B02D01E
S214015600019B039A1A60009B002B02D0009B029A12
S2140156101A6000BF05B05DF804FB00BF00800050B3
S21401562000B585B00190009100230393194BD3F880
S214015630403103F00303032B12D0032B16D8012BA2
S21401564002D0022B06D011E0FEF79AF90390092347
S21401565002930EE0FEF79CF903900823029308E0FC
S214015660FEF792F903900B23029302E000230293C4
S21401567000BF019B002B02D0019B039A1A60009B7E
S214015680002B02D0009B029A1A6000BF05B05DF89D
S21401569004FB00BF0080005000B585B0019000916A
S2140156A000230393194BD3F8603103F00303032B54
S2140156B012D0032B16D8012B02D0022B06D011E0F4
S2140156C0FEF75EF90390092302930EE0FEF760F9F8
S2140156D003900823029308E0FEF756F903900B2384
S2140156E0029302E00023029300BF019B002B02D02D
S2140156F0019B039A1A60009B002B02D0009B029A22
S2140157001A6000BF05B05DF804FB00BF00800050C2
S21401571084B0019000914FF440130393009B002B3B
S2140157200AD1019B0D4A934203D94FF48013039388
S2140157300FE0002303930CE0009B002B09DD019B87
S214015740064A934203D94FF48013039301E00023E2
S2140157500393039B184604B0704700BF005A6202C9
S21401576000B585B001900091184B03F580531A4699
S2140157704FF4003393660020FEF78CFB0246019B34
S21401578002FB03F30193FEF757FB03468DF80F3038
S214015790FEF768FBFEF76EFB034623F44013029305
S2140157A000990198FFF7B4FF0246029B1343029348
S2140157B00298FEF765FB9DF80F30002B01D0FEF72F
S2140157C049FB00BF05B05DF804FB00BF0080005038
S2140157D000B585B00190009100230293154BD3F8D4
S2140157E0803103F00303012B02D0022B08D00EE018
S2140157F002AB00211846FFF7D7FE0F23039309E0FB
S214015800FEF7B8F8034602930223039302E000234F
S214015810039300BF019B002B02D0029A019B1A60E2
S214015820009B002B02D0009B039A1A6000BF05B0B4
S2140158305DF804FB0080005008B502214FF420708B
S214015840FEF772FB00BF08BD00B583B002230193CB
S2140158504FF4C070FEF72EFC0346074A934201D868
S2140158600123019301994FF42070FEF75DFB00BF01
S21401587003B05DF804FB00BF80F0FA0200B585B006
S2140158800190009100230393194BD3F8403203F0A3
S2140158900303032B12D0032B16D8012B02D0022BA5
S2140158A006D011E0FEF76CF80390092302930EE090
S2140158B0FEF76EF803900823029308E0FEF764F8FB
S2140158C003900B23029302E00023029300BF019B87
S2140158D0002B02D0019B039A1A60009B002B02D07A
S2140158E0009B029A1A6000BF05B05DF804FB00BF7A
S2140158F00080005008B5FEF717F803460021184649
S214015900FFF72EFF00BF08BD00B585B001900091DE
S21401591000230393204BD3F8003203F00703013B27
S214015920032B25D801A252F823F000BF3D590100F0
S214015930495901005559010061590100FEF720F847
S21401594003900923029316E0FEF722F8039008233A
S214015950029310E0FEF718F803900B2302930AE077
S214015960FDF7C4FF03469B0A03930E23029302E04E
S2140159700023029300BF019B002B02D0019B039AD8
S2140159801A60009B002B02D0009B029A1A6000BF8F
S21401599005B05DF804FB00BF0080005000B585B07F
S2140159A00190009100230393114B1B6803F004033D
S2140159B0002B06D0FDF79AFF034603930C230293B0
S2140159C005E002AA03AB11461846FFF729FE019B24
S2140159D0002B02D0039A019B1A60009B002B02D079
S2140159E0029A009B1A6000BF05B05DF804FB00BF79
S2140159F010E000E082B0EFF310830093009B019368
S214015A0072B600BF019B184602B0704782B0019083
S214015A10019B002B01D162B600BF00BF02B07047E8
S214015A2084B0EFF311830193019B03933023029318
S214015A30029B83F3118800BF039B184604B070478E
S214015A4084B00190019B0393039B83F3118800BFED
S214015A5000BF04B0704708B5FDF748FF00BF08BD9A
S214015A6082B001900091019B1A68009B22FA03F311
S214015A7003F00103184602B070470000024B034AC8
S214015A801A6400BF704700BF004009503254FFFF40
S214015A90024B4AF6CD321A6400BF704700400950E7
S214015AA008B500BF04210448FFF7DAFF0346002BC0
S214015AB0F8D100BF00BF08BD8440005008B5FFF70D
S214015AC0EFFF044BD3F884309B0903F00303DBB2EA
S214015AD0184608BD0040005082B003468DF80730D6
S214015AE09DF80730013B4FF4806202FA03F3184633
S214015AF002B0704700B585B003468DF807309DF8B3
S214015B000730002B13D12D4B00221A602C4B03F5C6
S214015B1080531A464FF4003353662A4B5B68012BB9
S214015B2047D1274BD3F80031244A136041E0234B79
S214015B301B68002B3DD0234B5B68012B39D0204AD4
S214015B401E4B1B68C2F800318020FEF78DFD034610
S214015B50052B28D14FF4C070FEF79CF90390039BE8
S214015B60012B04D102214FF4C070FEF7DDF9154B6D
S214015B7003F500531A4607231361124B03F58053AE
S214015B801A460123536000BF0E4B1B6903F0010345
S214015B90002BF9D0039B012B0BD101214FF4C070D0
S214015BA0FEF7C2F905E0074B03F580531A460123B9
S214015BB0536000BF05B05DF804FB00BFDC18002091
S214015BC00080005000C0015000B583B00190019BD9
S214015BD01A78054B1A700121002000F0AFF800BFBB
S214015BE003B05DF804FB00BFD818002082B0019016
S214015BF0064B5B6F23F44072019B5B781B020349E3
S214015C0013434B6700BF02B0704700BF004000500F
S214015C1000BF704700BF704700B585B003468DF8DA
S214015C2007309DF80730002B02D00020FFF762FFF7
S214015C30144B1B69134A43F00403136103F0D0FBB2
S214015C40FFF7E6FFFFF7D6FE03902AF025FF03983D
S214015C50FFF7DCFEFFF7DEFF03F0DAFB9DF8073007
S214015C60002B02D00120FFF745FF9DF8073083F097
S214015C700103DBB2002B01D0FFF7EDFE00BF05B03C
S214015C805DF804FB00ED00E000B585B003468DF835
S214015C9007309DF80730002B02D00020FFF72AFFBF
S214015CA0124B1B69114A43F00403136103F098FB7E
S214015CB0FFF7A0FE03902AF0EFFE0398FFF7A6FE7B
S214015CC003F0A6FB9DF80730002B02D00120FFF75A
S214015CD011FF9DF8073083F00103DBB2002B01D0E2
S214015CE0FFF7B9FE00BF05B05DF804FB00ED00E06C
S214015CF008B50020FFF7FEFE00BF08BD08B501206D
S214015D00FFF7F8FE00BF08BD82B00190064BDB6EC0
S214015D1023F03003019A12791146034A0B43D366E6
S214015D2000BF02B0704700BF0040005082B003467B
S214015D308DF8073000BF02B07047000000B585B08F
S214015D4001900B468DF80330019B002B03D1FDF724
S214015D50A5FD039001E0019B03930D4B1B78002BDF
S214015D600AD0039B0B4A934206D89DF80330194686
S214015D70012000F011F806E09DF8033019460220D4
S214015D8000F00AF800BF00BF05B05DF804FB00BFD5
S214015D90D8180020005A620210B586B003460A469B
S214015DA08DF8073013468DF80630FFF787FE034659
S214015DB01A469DF80730934240D0FDF76FFD0590D7
S214015DC0059B04939DF80730012B03D1012105980B
S214015DD0FFF7D2FAFFF70EFE03901A4B03F50053B6
S214015DE01A464FF0007353669DF807301846FFF7C2
S214015DF09DFF144C9DF807301846FFF76DFE0346CD
S214015E00236702E00F4BD3F884300E4B5B6E03F032
S214015E100073002B06D10B4BD3F8843003F020031C
S214015E20002BEFD00398FFF7F1FD9DF80730022B0A
S214015E3005D100210598FFF79FFA00E000BF06B0E4
S214015E4010BD00BF0040005000B585B003468DF878
S214015E5007302F4B03F580531A464FF00043536625
S214015E602C4B03F580531A4601235360294B5B6C78
S214015E7003F00103002B14BF012300238DF80F301C
S214015E80FFF706FE9DF80730002B1BD1214B9B68C0
S214015E9003F001030293029B002B0CD01D4B03F56C
S214015EA000531A460123936000BF1A4BDB6A03F0C6
S214015EB00103002BF9D0174B03F500531A460123B3
S214015EC0536019E000BF134BDB6A03F00803002B95
S214015ED0F9D1104B03F500531A46202353620D4B9C
S214015EE003F580531A460123936000BF094B5B6A92
S214015EF003F02003002BF9D09DF80F30002B01D0C2
S214015F00FFF7BCFD22F0B1FF00BF05B05DF804FB52
S214015F10008000500040095000B585B001902B4B21
S214015F2003F580531A464FF000435366284B03F59A
S214015F3080531A4601235360254B5B6C03F0010323
S214015F40002B14BF012300238DF80F30FFF7A0FDAF
S214015F50019B5B785B001F4A43F00103D3631C4B34
S214015F609B6823F07402019B9B781B011343019AE3
S214015F70D278002A01D0042200E0002214491343FB
S214015F808B60019B1B791B02019A92791146104A7C
S214015F900B431361019B5B791B02019AD27911466F
S214015FA00B4A0B435361019B1B781846FFF74CFFC6
S214015FB09DF80F30002B01D0FFF760FD22F055FF52
S214015FC00123184605B05DF804FB00BF00800050B1
S214015FD0004009500040005082B00190019B1B6CAC
S214015FE0184602B0704782B00190009100BF019B35
S214015FF0DA6C009B1340002BF9D100BF00BF02B042
S214016000704700B583B001900091002300220099EB
S214016010019800F03FF900BF03B05DF804FB00B53E
S21401602083B001900091009B1B8AB3F5805F03D07B
S214016030009B1B8AB3F5405F00BF009B9B68B3F5CE
S214016040165F03D8009B9B68002B00BF002300222D
S2140160500099019800F01EF900BF03B05DF804FB3B
S21401606000B583B00190019800F038FA019B002238
S214016070DA60019B00229A60019B41F202021A61DA
S214016080019B0022DA61019B00225A61019B0022DA
S2140160909A61019B00221A62019B00225A62019BAF
S2140160A00022DA62019B00229A64019B03F50053E9
S2140160B01A46044B5364019B00229A6200BF03B048
S2140160C05DF804FB7F370C0100B585B001900B46E7
S2140160D08DF80330002303939DF80330002B03D182
S2140160E0019800F0FBF936E0019B03F580531A4650
S2140160F0012353609DF8033003F00F03039340F22E
S214016100FF710198FFF76FFF019B039A1A637821CD
S2140161100198FFF768FF002303939DF8033003F00F
S2140161200103DBB2002B03D0039B43F0010303936F
S2140161309DF8033003F00403DBB2002B03D0039B6E
S21401614043F00203039300BF019B1B6C03F00303A0
S214016150039A9A42F8D100BF05B05DF804FB82B0FD
S214016160019000BF019B1B6C03F08003002BF9D04C
S214016170019B5B6BDBB2184602B0704782B00190A0
S2140161800B468DF8033000BF019B1B6C03F04003E8
S214016190002BF9D09DF80320019BDA6300BF02B003
S2140161A07047000000B587B003900291019200236A
S2140161B08DF81730029B002B07D1039800F05AF890
S2140161C003461846FDF776FF0290039B5B68039B28
S2140161D09B6803F0E003802B1ED0802B20D8602B19
S2140161E016D0602B1CD8402B0ED0402B18D8002B75
S2140161F002D0202B04D013E010238DF8173010E0C6
S21401620008238DF817300CE006238DF8173008E0C8
S21401621004238DF8173004E001238DF8173000E0D1
S21401622000BF9DF81730002B1ED0029B5A019DF827
S2140162301730019901FB03F3B2FBF3F30493049BBC
S214016240203B0493049BDB000493049A084B134001
S214016250049301210398FFF7C6FE039B049A9A62F2
S21401626001210398FFF7BFFE00BF07B05DF804FBEE
S214016270F8FF7F0084B00190019B054A934203D149
S21401628038230393039B00E00023184604B07047AD
S2140162900000035A00B585B0039002910192009365
S2140162A0039B5B68002B04D040F2FF710398FFF755
S2140162B09AFE0398FFF7D4FE039B1B6923F44C5305
S2140162C023F00303029A527B1343029AD2891343A3
S2140162D0029A128A1A43039B1A61039B9B6823F056
S2140162E0804323F0E203029A127B1343029A127E42
S2140162F01A43029B5B691A43039B9A60029B9B6845
S214016300002B05D1039B9B6843F00042039B9A60D8
S214016310029BDB69002B00F09480039B9A68029B2A
S214016320DB691B7A9B051A43039B9A60039B9A6859
S214016330029BDB699B7A5B041A43039B9A60039B6F
S2140163409A68029BDB699B8803F4C0431A43039B4C
S2140163509A60039B9A68029BDB695B789B001A43F1
S214016360039B9A60039B9A68029BDB695B7BDB005D
S2140163701A43039B9A60039B9A68029BDB699B7B8B
S2140163801B011A43039B9A60039B9A68029BDB6975
S2140163909B789B021A43039B9A60029BDB699B795D
S2140163A09A02029BDB69DB795B021A43039BDA6084
S2140163B0029BDB691B78012B04D0029BDB691B78EF
S2140163C0032B05D1039BDB6843F00402039BDA60D1
S2140163D0029BDB691B78022B04D0029BDB691B78CE
S2140163E0032B03D13A4B01221A6002E0394B0122FA
S2140163F01A60029BDB695B7A1A46039B03F580539E
S2140164001A62029BDB695B7A002B05D0039BDB6873
S21401641043F40062039BDA60029BDB69DB7A002BA4
S2140164200FD0039BDB6843F40042039BDA60029BB8
S214016430DB691B7B284A03F00F0302F58052C2F882
S2140164408030019B002B1DD0019B93F82030002B40
S21401645006D0039B03F580531A460123936111E08E
S214016460039B5B6923F00903019A92F822201343E8
S214016470019A92F82120134343F00103039A02F58F
S2140164808052536105210398FFF71EFE029B9B680D
S214016490002B07D0029B5968029B9B681A460398FB
S2140164A0FFF780FE029B1B7819460398FFF70CFE48
S2140164B000BF0398FFF790FD0346DB4303F4405308
S2140164C0002BF6D100BF00BF05B05DF804FB00BF8E
S2140164D0C0D40350C0E403500080035000B583B01D
S2140164E00190019B5B6803F00103002B24D0019B04
S2140164F00A221A6350210198FFF775FD00BF019B20
S2140165001B6C03F00303002BF9D1019B9A6A019BD4
S2140165109A6201210198FFF766FD01E0019B5B6B22
S214016520019B1B6C03F08003002BF7D1019B03F545
S21401653000531A460123536000BF03B05DF804FB05
S21401654000B587B0039002910192FFF753FA0590C8
S214016550039B1A68029BDB431A400199029B0B407E
S2140165601A43039B1A600598FFF750FA00BF07B05D
S2140165705DF804FB82B0034600918DF807309DF864
S2140165800730002B0AD09DF80730012B06D09DF866
S2140165900730022B02D09DF80730032B08489DF8E0
S2140165A007200121009B994013465B0013441B0101
S2140165B0034403F500531033196000BF02B070475F
S2140165C000C0035082B0034600918DF807309DF855
S2140165D00730002B0AD09DF80730012B06D09DF816
S2140165E00730022B02D09DF80730032B08489DF890
S2140165F007200121009B994013465B0013441B01B1
S214016600034403F580531033196000BF02B070478E
S21401661000C0035000B585B0029101920093034675
S2140166208DF80F309DF80F30002B0AD09DF80F30F3
S214016630012B06D09DF80F30022B02D09DF80F30AB
S214016640032B019B002B0FD0009B002B06D09DF83F
S2140166500F3002991846FFF7B5FF05E09DF80F3099
S21401666002991846FFF786FF029B072B19D89DF85B
S2140166700F2013465B0013441B01043303F1A043B0
S21401668003F57033029A92000F2101FA02F0029A82
S2140166909200019901FA02F201461846FFF750FFEF
S2140166A01AE09DF80F2013465B0013441B010C33C0
S2140166B003F1A04303F57033029A083A92000F21C2
S2140166C001FA02F0029A083A9200019901FA02F2DE
S2140166D001461846FFF734FF019B002B0FD1009BA4
S2140166E0002B06D09DF80F3002991846FFF76AFF77
S2140166F005E09DF80F3002991846FFF73BFF00BFF3
S21401670005B05DF804FB0000094B03F580531A46FB
S2140167104FF400339366074B41F67132DA63054B4B
S21401672003F500531A460123D36000BF704700BF2C
S21401673000800050000003500A4B41F67132DA63C4
S214016740084B03F500531A460123D360054B00227C
S214016750DA63054B03F500531A464FF4003393668C
S21401676000BF7047000003500080005000BF4FF08C
S214016770B0435B68002B04D04FF0B0439B6A002BFC
S214016780F5D100BF704708B5FFF7F0FF4FF0B043F3
S2140167900122DA6000BF08BD08B5FFF7E7FF4FF03A
S2140167A0B0430222DA6000BF08BD000084B0019049
S2140167B00091009B1B781A46009B5B789B001A434E
S2140167C0009BDB785B011A43009B1B791B014FF092
S2140167D0B04042EA0301019A13465B0013449B0052
S2140167E0034430331960009B1B78012B09D1064BFB
S2140167F00393009B9978019B9B00039A13440A46D6
S2140168001A6000BF04B07047E880035000B583B03B
S21401681003468DF807304FF0B0435B68002B06D176
S2140168209DF8073083F00103DBB2002B20D14FF037
S214016830B0435B68002B01D0FFF798FF9DF8073047
S214016840002B09D04FF0B04303F580531A460123BD
S2140168505360FFF798FF0CE0FFF79EFFFFF786FFF8
S2140168604FF0B04303F500531A460123536000E08E
S21401687000BF03B05DF804FB00B583B001904FF094
S214016880B0435B68002B01D0FFF770FF4FF0B043B9
S21401689003F500531A4601235360019B5B78002BD6
S2140168A001D0012200E00022019B9B78002B01D041
S2140168B0022300E000231343019AD278002A01D074
S2140168C0042200E000221A43019B1B791B011A4394
S2140168D0019B5B79DB004FF0B04113438B604FF0B7
S2140168E0B04303F580531A4601235360019B1B787E
S2140168F0002B01D0012300E002234FF0B042D36009
S21401690000BF03B05DF804FB014B5B691846704796
S21401691000C0075000B585B00190114B03F58053B8
S2140169201A464FF480335366FFF7EEFF0390039B3E
S2140169309B09DBB203F03F03DAB2019B9A70039B1B
S214016940DBB203F03F03DAB2019B5A70039B1B0BC9
S214016950DAB2019B1A7000BF05B05DF804FB00BFF8
S2140169600080005082B001900B468DF80330019BE9
S2140169700D4A934205D10D4A9DF80330C2F88C3179
S21401698008E0019B0A4A934204D1084A9DF8033065
S214016990C2F89C31019BDB6D43F08002019BDA65F6
S2140169A000BF02B0704700BF00C005500080035012
S2140169B00000065000B587B0039002910192029B39
S2140169C0002B04D14FF42070FDF774FB0290029B5C
S2140169D05A1E019B5B00B2FBF3F30593059B1B025A
S2140169E00593039B059ADA6100BF07B05DF804FBC7
S2140169F000B583B001900091019B3D4A934202D0BD
S214016A00019B3C4A934200BF019800F075F8019B38
S214016A1003F580531A4601235360019B9A68009B35
S214016A201B8A43F001039BB21946009B9B7B002BFC
S214016A3002D04FF4806300E000230B431A43019B0E
S214016A409A60019B9B68009A127D002A02D04FF043
S214016A50005200E000221A43019B9A60009B9B7C37
S214016A60002B05D0009BDB7C19460198FFF77AFFC7
S214016A70009B1B7B43F48052019BDA60009B5968A4
S214016A80009B9B681A460198FFF794FF009B5B7B6F
S214016A90002B02D0019B10225A61009B5B7D002BCC
S214016AA005D0019B9B6843F48032019B9A60009B52
S214016AB09B7D002B05D0019B9B6843F40042019B04
S214016AC09A60009BDB7D1B0703F0E042009B1B7E68
S214016AD01B0503F4E0031A43019B9A65009B1B7890
S214016AE01A46019B5A6100BF03B05DF804FB00BF64
S214016AF000C005500000065082B00190019B264A56
S214016B00934202D0019B254A934200BF019B03F5A5
S214016B1080531A4601235360019B40F6AA625A61CC
S214016B20019B00229A60019B0022DA65019B41F2DB
S214016B300502DA60019B00221A61019B0022DA61DC
S214016B40019B0022DA64019B03F500531A46144B9D
S214016B509364019B00229A65019B0F4A934203D0DE
S214016B60019B0E4A934202D1019B00221A65019BAA
S214016B70094A934203D0019B084A934202D1019BE2
S214016B8000225A65019B03F500531A460123536000
S214016B9000BF02B0704700BF00C00550000006509D
S214016BA0FFFF010082B001900B468DF8033000BF55
S214016BB0019B9B6903F04003002BF9D09DF803204D
S214016BC0019BDA6300BF019B9B6903F02003002B46
S214016BD0F9D0019B5B6ADBB2184602B07047000031
S214016BE030B583B00190019822F065F9064A019B01
S214016BF014461D460FCD0FC495E8030084E8030034
S214016C000023184603B030BDE01800208CB0019078
S214016C100B468DF803301346ADF8003000230A9377
S214016C20BDF9003047F6FF72934201D1FF23DEE043
S214016C309DF80330022B01D90023D8E09DF80330DC
S214016C40DB006C4A13440793079B9B780693079BCC
S214016C501B78012B2BD100230993079BDB781A465F
S214016C60069BD31A0A9317E00A9A099BD31A5B0864
S214016C700A9AD31A0393079B5A68039B5B00134433
S214016C80B3F90030BDF900209A4203DA039B013BB9
S214016C900A9301E0039B0993099A0A9B9A42E3D35C
S214016CA00A9BDAB2069BDBB21344DBB29FE0079B7A
S214016CB05B680593059B002B01D1002397E0059B9C
S214016CC0B3F90030BDF900209A4204DD059B1B880C
S214016CD0ADF800300AE0059BB3F90230BDF900209B
S214016CE09A4203DA059B5B88ADF80030C823ADF8FD
S214016CF022302823ADF82030059B9B88FF2B0AD134
S214016D000A9B01330A93059BDB88ADF82230059B6D
S214016D109B68ADF82030BDF92220BDF90030D21AAB
S214016D20BDF9203092FBF3F31A460A9B13440A93EB
S214016D30079B5B78013B0A9A9A4203D9079B5B78CB
S214016D40013B0A930A9BDB00059A13440433049320
S214016D50049B5A68049BB3F902301946BDF900300A
S214016D6001FB03F31344002B02DA00230B930BE021
S214016D70049B5A68049BB3F902301946BDF90030EA
S214016D8001FB03F313440B930B9B03F5FA731A4AA7
S214016D90A2FB03239B090B930A9B01330A93079BD0
S214016DA05B781A460A9B934208D2059A0A9BDB0037
S214016DB013449B881A460B9B9342C3D90A9B013BFB
S214016DC0059ADB0013449B881A460B9B934206D90F
S214016DD00A9B013B059ADB0013449B880B930B9A95
S214016DE0069B9A4201D2069B0B930B9BDBB218467D
S214016DF00CB07047E0180020D34D621088B00190A7
S214016E000B468DF8033013468DF802309DF803309B
S214016E10022B01D9604BBBE09DF80330DB005F4AD3
S214016E2013440693069B1B78012B26D1069BDB7821
S214016E309DF802209A4203D9069BDB788DF8023032
S214016E40069B9B789DF80220D31A8DF802309DF898
S214016E500220069BDB781946069B9B78CB1A9A4242
S214016E6002DD00238DF80230069B5A689DF8023039
S214016E705B001344B3F900308AE0069B5B68059318
S214016E80059B002B01D1444B82E0059B0433049300
S214016E90049B002B01D1404B7AE0069B9B789DF822
S214016EA002209A4203D8059BB3F9023070E0069B94
S214016EB0DB789DF802209A4203D3059BB3F9003094
S214016EC066E000238DF81F30069B5B78013B8DF84A
S214016ED00F30049B1B88FF2B14D101238DF81F3024
S214016EE010E09DF81F300133DB00049A13441A8822
S214016EF09DF802309BB29A420BD39DF81F300133A6
S214016F008DF81F309DF81F209DF80F309A42E8D368
S214016F1000E000BF9DF802304FF47A7203FB02F2E4
S214016F209DF81F30DB0004990B445B68D31A02936B
S214016F309DF81F30DB00049A1344B3F90230DA0FD0
S214016F4013445B101BB21A46029B13449DF81F2084
S214016F50D20004990A44B2F9022093FBF2F3029399
S214016F60059BB3F900301A46029B934203DD059B4D
S214016F70B3F900300CE0059BB3F902301A46029BC8
S214016F80934203DA059BB3F9023001E0029B1BB280
S214016F90184608B0704700BF0080FFFFE0180020C9
S214016FA008B50448FFF71CFE012021F09FFF00BF33
S214016FB008BD00BFE00F0400014B1846704700BF34
S214016FC0E00B002000B587B001AB00221A605A60C2
S214016FD09A60DA601A6102238DF804300B4B029333
S214016FE002238DF80D3004238DF80E3002238DF820
S214016FF0133005238DF8143001AB19464FF0FF30DE
S21401700021F0DCFF00BF07B05DF804FB006A180042
S21401701000B583B0074A6B4692E8030083E8030095
S2140170206B461846FEF778FF0023184603B05DF856
S21401703004FB00BFF80F040000B583B00A4B5B6F7A
S214017040094A43F0010353676B4600221A601A711E
S21401705000238DF804306B461846FEF755FE0023D4
S214017060184603B05DF804FB0040005030B58DB003
S2140170702B4B01AC1D460FCD0FC40FCD0FC495E8A9
S214017080030084E80300002308934FF0FF330B93BB
S214017090244BD3F84C3103F40023002B04D1214BAD
S2140170A0D3F85031DBB20B930B9BB3F1FF3F08D102
S2140170B01D4B1B884FF6FF72934202D01A4B1B885A
S2140170C00B930B9BB3F1FF3F01D178230B930B9BE3
S2140170D0B3F1FF3F18D00B9BDBB28DF81D30FEF7E6
S2140170E067F802460B9B13440B930B9B002B02DAAB
S2140170F000230B9304E00B9BFF2B01DDFF230B9377
S2140171000B9BDBB28DF81C300848FCF719FC01AB71
S2140171101846FDF755FF002318460DB030BD00BFD9
S214017120001004000080E00F0001E00F00F04902AB
S21401713008B50120FEF7B8F80023184608BD000080
S21401714030B587B00C4B01AC1D460FCD0FC42B6874
S21401715023600023039325238DF80530042302932F
S21401716001AB1846FEF72CF86420FEF78FF80023D3
S214017170184607B030BD00BF2810040082B0034691
S21401718000918DF807309DF90730002B0ADB009B34
S214017190DAB20C499DF907301201D2B20B4483F8DA
S2140171A000230BE0009BDAB207499DF8073003F095
S2140171B00F03043B1201D2B20B441A7600BF02B091
S2140171C0704700BF00E100E000ED00E000B583B0CD
S2140171D0FB238DF807300CE09DF907300521184692
S2140171E0FFF7CCFF9DF90730DBB20133DBB28DF838
S2140171F007309DF907303F2BEEDD0023184603B01C
S2140172005DF804FB08B500F01FF900BF08BD0000DB
S21401721000B583B002F0FCF90090009B002B01D072
S214017220009B2CE002F09CFB03464FF4167202FB17
S21401723003F303F5742303F23F23134AA2FB03234C
S2140172409B0C124A136000238DF8073012E09DF85C
S21401725007300E4A12680E4941F823200D4B1A6872
S2140172600A4B1B6813440B4A13609DF80730013321
S2140172708DF807309DF80730092BE8D9002318460A
S21401728003B05DF804FB00BF83DE1B43F818002043
S214017290001900202C19002008B5054B01221A7090
S2140172A002F04EFB0346034A136000BF08BD00BF51
S2140172B0341900203019002008B5294B1B7883F0BB
S2140172C00103DBB2002B49D102F03AFB0246254B03
S2140172D01B68D31A244A1360234B1B68002B02D069
S2140172E0214B1B6800E001231F4A13601F4B1B68DC
S2140172F01F4A127811461F4A52F8212011461A4A8F
S21401730012688A1A9B1A194A1360194B1B78194678
S214017310154B1B68174A42F82130144B1B6809337A
S214017320154AA2FB0323DB08144A1360104B1B7893
S2140173300133DAB20E4B1A700D4B1A780E4BA3FBC3
S2140173400213D9080B469B000B445B00D31ADAB232
S214017350074B1A70024B00221A7000E000BF08BDEE
S2140173603419002030190020FC1800202C190020A8
S2140173702819002000190020CDCCCCCCF81800200C
S214017380014B1B6818467047F818002082B0034668
S2140173908DF807309DF90730002B0CDB9DF8073080
S2140173A003F01F0205499DF907305B09012000FA29
S2140173B002F241F8232000BF02B0704700E100E06E
S2140173C082B003468DF807309DF90730002B0DDBA0
S2140173D09DF8073003F01F0206499DF907305B0947
S2140173E0012000FA02F2603341F8232000BF02B008
S2140173F0704700BF00E100E082B0034600918DF8BF
S21401740007309DF90730002B0ADB009BDAB20C49E6
S2140174109DF907301201D2B20B4483F800230BE02A
S214017420009BDAB207499DF8073003F00F03043BCF
S2140174301201D2B20B441A7600BF02B0704700BFE9
S21401744000E100E000ED00E008B502212C20FFF786
S214017450D3FF104B03F580531A464FF400235366AF
S2140174600D4B03F500531A460C4B53670A4B03F5B5
S21401747000531A46094B13672C20FFF7A1FF2C2057
S214017480FFF784FF044B03F580531A46034B5367FB
S21401749000BF08BD0080005000C00050010000A0E1
S2140174A084B003468DF8073000238DF80F30144B57
S2140174B09B6D03F00103002B08D0124B1B7883F061
S2140174C00103DBB2002B01D0012300E000238DF87D
S2140174D00F309DF80F3003F001038DF80F309DF843
S2140174E00F3083F00103DBB2002B03D09DF8073089
S2140174F0002BDCD19DF80F30184604B0704700BF52
S21401750000C000503519002008B500F003F800BF90
S21401751008BD000000B583B0164B1B6F0193019B9D
S21401752003F00103002B0AD0124A019B03F001036A
S21401753002F500521367FFF7BFFE01F0ADFD019B98
S21401754003F00053002B06D00A4A019B03F00053B8
S21401755002F500521367019B002B06DA054A019BD0
S21401756003F0004302F50052136700BF03B05DF855
S21401757004FB00BF00C0005000B585B00190FEF7C7
S21401758039FA0390054A019B13600398FEF73EFA09
S2140175900023184605B05DF804FB00BF381900202B
S2140175A000B583B000230193FEF724FA0090054B43
S2140175B01B6801930098FEF729FA019B184603B051
S2140175C05DF804FB3819002000B585B003900291E0
S2140175D00192039B002B02D1FFF7E2FF0390039B6E
S2140175E0002B0CD0039B5B68002B08D0039B5B68C9
S2140175F0039A1068019A02999847034600E02323EC
S214017600184605B05DF804FB10B586B003900291EC
S2140176100192009304AB0593039B002B02D1FFF765
S214017620BFFF0390009B002B01D0009B0593039B9B
S214017630002B0DD0039B9B68002B09D0039B9C68F5
S214017640039B1868059B019A0299A047034600E030
S2140176502323184606B010BD0EB400B588B00190BD
S214017660019B0693002305930AAB0393069B002B0D
S21401767005D1FFF795FF0790079B069309E0FFF7F3
S2140176808FFF0790079A069B9A4202D00698FFF74B
S21401769073FF0399099828F047FB0490079A069B05
S2140176A09A4202D00798FFF767FF049B002B01DC84
S2140176B037230593059B184608B05DF804EB03B025
S2140176C0704782B00190019B1B6C184602B0704750
S2140176D082B001900091019B03F500531A46009B6E
S2140176E0536400BF02B0704782B001900091019BC5
S2140176F003F500531A46009B936400BF02B070471F
S21401770082B001900091019B03F580531A46009BBD
S214017710936400BF02B0704784B00190019B9B6CDC
S2140177200393019B5A6C039B1340184604B07047A1
S21401773000B591B009900891079206930AAB002212
S2140177401A605A609A60DA6000238DF83F30002391
S2140177508DF83E3001238DF83D30069B1B79002BBA
S21401776003D0069B1B798DF82830079B0AAADA619D
S214017770069B5B79002B03D001238DF83D3002E098
S21401778002238DF83D3012999DF83D3004939DF803
S2140177903D3003939B4B02939B4B01939B4B009372
S2140177A09B4B089A099800F03FFB0E900E9B002B0E
S2140177B001D00E9B21E1069B9A68129B5A63069B99
S2140177C09A69129B5A64069B1A7D129B83F8402085
S2140177D0069B1A69129BDA63069B1A7B129B83F837
S2140177E03820069B1A6A129BDA64069B1A7F129B44
S2140177F083F84820069B9A6A129B5A65069B93F863
S2140178002420129B83F85020069B1A68129B1A6349
S21401781001213A20FCF71CFC069B187B069B196984
S21401782001230422FEF7F6FE069B187D069B996946
S21401783001230222FEF7EEFE079B00221A70129B1E
S214017840002283F85820069B9B6801211846FCF706
S214017850FFFB069B5B7983F00103DBB2002B11D0A3
S21401786001214FF4C060FCF7F3FB069B9B681021D7
S2140178701846FDF743F8069B1B6807991846FEF75E
S214017880CEFB19E001214FF48060FCF7E1FB069B7B
S2140178909B680F211846FDF731F8069B1B68079970
S2140178A01846FEF7AEFB129B93F8583043F00403DC
S2140178B0DAB2129B83F85820564B02221A60069BB6
S2140178C01B7B1946069B1B691B04524A0B4313611B
