:1000000000100020491A0000F91900004B070000F9
:10001000F9190000F9190000F9190000F919000098
:10002000F9190000F919000084B90000F91900005D
:10003000F9190000CCB90000F9190000F919000005
:10004000F9190000F9190000F9190000F919000068
:10005000F9190000F9190000F9190000F919000058
:10006000F9190000F9190000F9190000F919000048
:10007000F9190000F9190000F9190000F919000038
:10008000F9190000F9190000F9190000F919000028
:10009000F9190000F9190000F9190000F919000018
:1000A000F9190000F9190000F9190000F919000008
:1000B000F9190000CDA50000F91900009DAF00005E
:1000C00065AF000061AF00009DA7000099AF000080
:1000D00069AF000071AF00006DAF0000FDAF000020
:1000E00075920000D9920000DDAF0000F919000000
:1000F000F9190000F9190000F9190000F9190000B8
:10010000F9190000F9190000F9190000F9190000A7
:10011000F9190000F9190000F9190000F919000097
:10012000F9190000F9190000F9190000F919000087
:10013000F9190000F9190000F9190000F919000077
:1001400010B5054C237833B9044B13B1044800E0D3
:1001500000BF0123237010BD6010002000000000CC
:100160007C02010008B5034B1BB10349034800E0C2
:1001700000BF08BD00000000641000207C020100E8
:1001800000F0C0B800F0C8B810B5154BADF5087D4B
:1001900003AC0FCB84E80F002C22002107A803F04A
:1001A000A6FBFF234FF4947200213EA88DF81D306A
:1001B00003F09DFB482200210DEB020003F097FBAA
:1001C0006822002124A803F092FB009424AB12AA19
:1001D0003EA907A800F0F2F80DF5087D10BD00BF9C
:1001E00054B90000704700000122044B1A7000232C
:1001F000034A1370034A1370704700BF9910002020
:10020000981000209A100020002238B5134B144C8F
:100210001A700122134B1A7023689A78EAB1DA78BF
:10022000DAB11A78510707D5986A00F077FA18B151
:100230004FF4C03000F040FA23681A7892070CD5CA
:100240005D6800F053FA854207D923684FF4C03047
:10025000596ABDE8384000F007BA38BD991000204F
:10026000841000209810002000F040BA002307B549
:1002700001A8019300F03EFA00B1019803B05DF8C7
:1002800004FB000007B5024601200B460649087032
:10029000064907480968009106490068096800F0A6
:1002A0007FFD03B05DF804FB9A1000208810002049
:1002B0008C10002084100020044A054905482023A2
:1002C00012680968006800F02FBD00BF7C10002094
:1002D000801000208C100020094B1A68D378927887
:1002E0002AB1002B41F20C0018BF0020704741F2E8
:1002F0000C0240F20570002B08BF1046704700BF8B
:100300008410002008B503F007F9BDE80840014853
:1003100003F0F5BA9010002010B5254B254C186855
:100320001B7992B08DF80C3023880290ADF80D3017
:10033000A37868468DF80F3003F0F6FA41F60833DB
:10034000ADF810309DF806300098C3F300038DF827
:100350001230BDF80430CDF81300ADF81730164B4D
:100360001A889B78ADF828208DF82A3000238DF864
:100370002B3003F003FB03F007FB2046032103F0BF
:1003800009FB03F00FFB03F0C7FA112102A803F0E9
:10039000DFFA03210AA803F0E2FA012003F0E6FAEB
:1003A000002840F2017008BF002012B010BD00BF4D
:1003B00064B900006AB900006EB9000070B5134C52
:1003C000134E20601348144D016014490A60144A0A
:1003D0001360049A134B1A6033780BB103F0A2FA3E
:1003E0002B78002BF8D0104B1B784BB123689A78F0
:1003F0004AB1DB7840F20570002B18BF002070BDB9
:1004000040F20370FBE740F20570F8E7841000202B
:10041000991000208C1000209810002080100020DF
:100420007C100020881000209A100020C0F30C03DC
:100430002DE9F04105460F4616460BB900F012FBB8
:1004400005F5005424F4FF5424F01F0405EB0608BE
:10045000A04507D8324639462846BDE8F041022378
:1004600000F00EBB204600F0FDFA04F50054EFE763
:1004700070B40025AD6A03462E69864206D86C69C1
:1004800013449C4202D370BCFFF7D0BF70BC7047CE
:100490001FB510F5C03F00F5C033144603931AD2C0
:1004A000039BB3F5FC2F16D2039BC3F5FC239342A9
:1004B00011D348B9836A5A69B2F5C03F04D91869A3
:1004C000019100F0CFFA01992246039804B0BDE8EB
:1004D0001040FFF7ABBF04B010BD0000F0B5421EE6
:1004E000D11C034685B019D86E460D4C04F1100797
:1004F000354620686168083403C5BC422E46F7D1F2
:100500000DF10F010F3311F8010912F8014F844268
:1005100004D19A42F7D1012005B0F0BD0020FBE7DD
:1005200071B90000036913F0FE0F0CBF0120002019
:10053000704738B504460D46FFF7D0FF48B16369F0
:10054000012B09D12046FFF7EDFF08B1A3692B600D
:1005500038BD01202C60FBE70020F9E72DE9F041D0
:100560000368044603F16043B3F5004F4FF0000009
:10057000A0B029D8826A636816699E4224D8B3F570
:10058000002F21D8656B06F14003AB4268D8B5F562
:10059000002F65D82846FFF7A1FF002860D0284625
:1005A000FFF7C0FF80B16B6973B1022B0FD1AB694C
:1005B000C4F1040119444FF0FF32204601F014F851
:1005C000284BC31A5842584120B0BDE8F08140F290
:1005D000046328460493FFF781FF08B90020F3E77E
:1005E0002846FFF79FFF0028F8D00027D7F834806F
:1005F0004046FFF773FF0028F0D0503EB045EDD8DD
:10060000284605A9FFF795FF0028E7D0BA6A059BA1
:1006100012699A42E2D89C42E0D8B3F5002FDDD8A7
:1006200006A801F0AFF8059A2146121B06A801F0B2
:10063000BDF806A801F0BCF8059C01F0BDF80390D8
:1006400001F0BEF821460090039B04F1200206A8A9
:1006500001F01EF804900498B0FA80F04009B3E766
:100660000120B1E7E320BBDE30B54FF0FF3289B0A7
:1006700005460C4600F0B8FF0D4B984215D140F2EC
:10068000022000F0BAF91C22002101A803F02FF982
:10069000084B29466846009302F010F86846211F6F
:1006A00002F00CF8684602F013F8002009B030BDE3
:1006B000E320BBDE0100064310B5044688B040F2DB
:1006C000022000F09AF91C22002101A803F00FF982
:1006D000054B21466846009301F0F0FF684601F0A3
:1006E000F7FF002008B010BD0000034300239B6A01
:1006F0009868704738B500239B6A04461B695D6B98
:100700002846FFF7EBFE08B12B6A236038BD08B519
:1007100002F0A4F8B0FA80F0400908BD4FF0FF33B2
:1007200013B5044601A80193FFF7F1FF20B1019B27
:10073000A3422CBF0020012002B010BD4FF4C030F6
:10074000704700207047002070474FF4017000F0A0
:100750005FB90000234B10B51B68C3F30743012B9F
:100760000DD1214B04205A6E4FF480231F494B6654
:1007700001F51041086250035CBF1D4A53661D4BD2
:10078000D3F88420110606D44FF400621A67D3F818
:100790008420D206FBD4FFF7D4FF00F01CF9FFF74A
:1007A000EFFCFFF7EFFC18B14FF4017000F030F9E7
:1007B000FFF7EAFC0446FFF715FD1CB140F2037396
:1007C0009C4203D140F2012000F022F9A4F205740A
:1007D000012C94BF40F203204FF4017000F018F98F
:1007E000002010BD0080E00F0080005000900050FD
:1007F00000A000500040005037B50124374B8DF861
:1008000006408DF80740D3F894305B0610D500F011
:1008100013F9A0F2022080B2072809D804FA00F0E8
:1008200010F0C90F1EBF00238DF806308DF8073079
:100830004FF490335B68013308D14FF4027000F03D
:10084000DCF800238DF806308DF807309DF807306E
:1008500063B14FF49030FFF781FE8DF806009DF8EC
:1008600006301BB94FF4027000F0C7F89DF806304F
:10087000002B31D04FF400434FF0FF31184A9366FC
:1008800002F1744211664FF6FF7151660021154A5C
:10089000C2F8D010BFF34F8FBFF36F8F0825124CF3
:1008A000C4F88050BFF34F8FBFF36F8F4FF44030C9
:1008B0000E490861C4F88051C86001F140618B663F
:1008C0004FF4903393601846016881F3088881F3F0
:1008D000098840688746FEE703B030BD00400050FD
:1008E0000090005000ED00E000E100E000A00044B6
:1008F000B1F5057F10B504460FD34FF40572002102
:1009000002F0F5FF04F5CE7204F5AA7104F12C0093
:100910000023BDE8104000F007BA40F2052010BDEA
:1009200013B50446009101462C3000F039FAC4F8A2
:10093000100218B141F20703984209D1A3784BB1D4
:1009400040F2032040F20223E278002A08BF184652
:1009500002B010BD40F20120FAE72DE9F04387B064
:100960000DF1080904460E4617460021102248469C
:100970001D46DDF8388002F0BAFF00211C22C8F8BD
:100980000010284602F0B3FF32463B462146CDF820
:10099000009004F12C0000F003FA23789A0744BF7A
:1009A0006268C8F80020DB0709D504F1080304F1E8
:1009B000240253F8041B934245F8041BF9D1237811
:1009C00040F20640002B18BF002007B0BDE8F083BE
:1009D0004FF4057070474FF000534CF23C325A8090
:1009E00070474FF000534AF6C0305B8823F00F0386
:1009F0009BB21B1A5842584170474FF0005208B53D
:100A00001080FFF7EEFF10B94FF20F03538008BDBF
:100A100008B5FFF7F2FFBFF34F8F0549054BCA68D2
:100A200002F4E0621343CB60BFF34F8F00BFFDE7DA
:100A300000ED00E00400FA054FF000534FF20F0103
:100A40005A888A4201D1188870473AB91B8840F207
:100A50000220012B18BF4FF4007070474FF4007054
:100A6000704700004FF4003208B5044B9A6601F05D
:100A70008DFDB0FA80F0400908BD00BF0090005025
:100A8000072BF8B506460F4614461D4601D900202F
:100A9000F8BD0121202001F0F3F90121212001F00E
:100AA000EFF98CB144EA06039B07F0D14FF4003212
:100AB000064B31469A66284623463A4601F090FD99
:100AC000B0FA80F04009E3E70120E1E70090005030
:100AD000002070470020704770B5D1E90152AA424A
:100AE00005D290F840302B449B1A402B10D900209F
:100AF00012E00A6890F84040D65C90F8412001333B
:100B0000224402F03F02013486548B6080F840405A
:100B10008B689D42EDD8012070BD2DE9F8431D463C
:100B20001746D1E901329B1A90F84020044613443D
:100B30009D420E469DF820909DF8248056D9FFF7DF
:100B4000CBFF00285CD1142341F2020084F8463028
:100B5000BDE8F88394F84120A25CFA5494F841204F
:100B60000133013202F03F0284F8412094F8402022
:100B7000013A84F8402094F840200AB19D42E9D11E
:100B8000D6E90121914201D29D4231D89D42DAD16C
:100B900029463846D4F8882000F026FDC4F888009D
:100BA000B9F1000F04D02A463946E06C00F0FEFD92
:100BB000B8F1000F08D094F843308BB12B463A4679
:100BC0003946A06C00F052FD94F8433043B1E36D18
:100BD000A26D2B449342E36524BF002384F8433085
:100BE000636D41F203002B446365B1E70023C2E764
:100BF0003268525CFA54B26801330132B260BFE726
:100C00000020A5E77FB50023CDE900330823154672
:100C10000DEB03020446FFF780FF41F20303984205
:100C2000064626D194F8433063B10822E06C0DEB00
:100C3000020100F0BBFD08230DEB03021146A06C7E
:100C400000F014FD039A029B6A6094F843202B6025
:100C50005AB9094A934208D0084A934205D008225B
:100C6000E06C0DEB020100F0A1FD6B682365002331
:100C70006365304604B070BDF70A0AF7FC0404FC53
:100C80002DE9F743044658680E4617469846002853
:100C900040D011F0030340D19B6A206E1B6902EB28
:100CA000000C1D1D65451CD81C33984219D2854285
:100CB000294638BF01469C4594BFC1EB0C02C1EBED
:100CC0000302081AC5F1680506EB000968182044FC
:100CD0004946019202F0E4FDFF214846019A02F0E4
:100CE00006FE226E0E4B9A420AD80E49B818884268
:100CF00006D99B1AF258C4F880204FF0FF32F25008
:100D00003A46D8E90035206E3146A8470020226EC9
:100D10003A44226603B0BDE8F08341F20200F9E7ED
:100D200004800100078001002DE9F04100254FF00B
:100D3000FF3704468846164603F0200380F8423009
:100D40001822FF21C0E91855A0F8405080F8435000
:100D5000A0F8445080F84650C0F88870683002F01F
:100D6000C6FD88222946C4E91286C4F88070C4F8FA
:100D7000847004F1900002F0BAFD40F20113A4F86F
:100D800024310123C4E9475784F8185184F82631E7
:100D900016B1304600F0F6FC0020BDE8F0810000FE
:100DA0002DE9F04FA7B0CDE91323029300230446A9
:100DB0000E46309DDFF8B4931593159A029B9A4224
:100DC00001D30020C7E094F84630142BF6D8DFE8B2
:100DD00013F06700AE00A800520039002E00500248
:100DE000390048023900020239004802970304041E
:100DF00015008C013E033E03D00204044FF00008AE
:100E0000636D0F2B00F291800127102316AA204654
:100E1000CDF80480009713A9FFF77FFE41F203038A
:100E20000990099A9A4200F05281099B44E00127F7
:100E3000D4E91432934200F25E8184F8467041F2A4
:100E4000030339E04FF00108D4E91437BB426CD9F1
:100E5000DB1BDDE91472BF1A94F84020032B174402
:100E600040F20B82032F00F20B82204613A9FFF7FA
:100E700033FE002320E00127636D072BDFD8082312
:100E800016AA2046CDE9007713A9FFF746FE41F2E6
:100E900003030C900C9A9A4200F0B2810C9B0BE079
:100EA00016AA204613A9FFF7ADFE41F203020690F1
:100EB000069B934202D0069B059345E0179A16992C
:100EC0002265002262659E4A914240F0A48102227E
:100ED00084F84620F0E7012316AA00932046082351
:100EE000019713A9FFF719FE41F203030790079A30
:100EF0009A4201D0079BDFE7169B03F07F43B3F1D3
:100F0000407F05D0142384F8463041F20903D3E72B
:100F1000179BD80706D594F8423043F0010384F8B4
:100F200042300027636D072BD5D901239EE120466F
:100F300016AA13A9FFF766FE41F203030890089F63
:100F40009F420BD0089F059741F20303059A9A42EE
:100F50003FF433AF059827B0BDE8F08F94F84420F4
:100F6000169B2AB1774A934240F087800D2336E0E2
:100F700094F84220D10741D594F84320002A3DD16E
:100F800071498B4233D022D8704A934275D014D81D
:100F90006F4A934200F0888004D8694A93426CD02B
:100FA0004B456AD0142316A884F84630FFF790FD0D
:100FB000002865D141F20807C5E7664A934279D017
:100FC000F0D8654A934258D0644A9342E9E75D4AB3
:100FD0009342CBD006D8624A9342E3D10F2384F8E0
:100FE0004630B0E75F4A934247D05F4AEDE71023AF
:100FF00084F84630236DC4E91632A4E7574A934279
:101000004AD02BD8514A934244D022D84B453FD0A6
:101010004F4A934244D016A8FFF75AFD00284BD000
:101020001323169884F84630C4F88C00FFF752FD5D
:1010300094F842309A0686D5002884D04368002B65
:1010400081D0204698470890089B002B3FF47BAF47
:1010500016E0414A9342DED10323C0E7414A93425E
:101060001CD010D83B4A934220D0364A9342D2D16A
:1010700094F84330002B3FF479AF142384F84630C2
:1010800041F201075FE7384A9342C4D10823A6E73B
:101090000A23A4E70523A2E70623A0E70C239EE783
:1010A00094F84330002BE8D1112398E794F84330AB
:1010B000002BE2D1122392E7142384F8463094F8EF
:1010C0004330002B3FF476AF41F204073BE7D4F8FE
:1010D00048A000F079FB80230221CDE9000317AA84
:1010E0003B46504600F098FA8AE6012384F84330E4
:1010F00084F8463061E616AA2046CDE9007713A9A8
:10110000FFF70BFD41F203030A900A9A9A4201D0BD
:101110000A9BD1E60DF1580C06F108030DF1700E93
:10112000624603CA724518605960944603F1080389
:10113000F6D110681860337843F00103337077E616
:10114000EB17A603FC0404FCF90707F9F40A0AF4F8
:10115000F30B0BF3F70A0AF7F50909F5F60808F699
:10116000FA0606FAFD0303FDFE0101FEEB17A65E7B
:10117000337843F004033370199BB36273785B07D1
:1011800026D5EB238DF8583017238DF85930A62338
:101190008DF85A305E2300208DF85B30236D606639
:1011A000C4F8843094F8453043F0020384F84530A5
:1011B000EF686FB104222B6816A9B8470822606E49
:1011C0002B68EF6818A91044B847636E1033636644
:1011D0000B2384F84630636D072B3FF630AE0123B6
:1011E00018AACDE900332046082313A9FFF795FC80
:1011F00041F203030B900B9A9A42B9D00B9B5BE62A
:101200003378179A43F002033370169B7360236D93
:10121000083B73622AB1142384F8463041F201037B
:101220004AE6042384F8463094F84530626643F079
:10123000010384F845301FE6042316AA2046CDE9B1
:10124000007713A9FFF769FC41F203030D900D9A93
:101250009A4201D00D9B2FE6236D042B02D9169BD9
:1012600023660127636D032BE6D9092384F84630F2
:10127000E5E50023636607233AE79F42FFF4F5ADF7
:10128000402B28BF40239F4228BF1F46032F88BF03
:1012900027F003073B4616AA2046CDE9008813A98C
:1012A000FFF73BFC41F203030E900E9A9A4201D0E5
:1012B0000E9B01E694F846B0BBF1070F04D1D5F8B8
:1012C00008A0BAF1000F1BD1042FC7F1040A88BF90
:1012D0004FF0000A16AB5246FF21D81902F007FB67
:1012E000BBF1090FBA4414D12B465246204616A929
:1012F000FFF7C6FC0E900E9B002B3FF4A5ADD7E781
:101300003A462B68606E16A9D047626E3A44626610
:101310009AE5BBF1040F20D173789F077FF594AD58
:10132000EB68002B3FF490AD626E042A0BD80AEBF9
:101330000203062B07D917AB9B1A1A68C4F884203E
:101340004FF0FF321A60EF6852462B68606E16A9A4
:10135000B847676E5744676676E5BBF10B0F7FF4BD
:1013600073AD737858077FF56FADEF68002FEBD141
:101370006AE594F8427017F0200707D0D4F88C0083
:10138000FFF7A8FB074600283FF448AF4FF0010ADB
:1013900042E04BB347B33B6933B320469847DDE99E
:1013A000143294F840809B1A43448342FFF45DADAD
:1013B000D4E91421A2EB0108B8F1400F28BF4FF087
:1013C0004008984528BF984616AA43462046CDE9CE
:1013D00000AA13A9FFF7A1FB41F203030F900F9A94
:1013E0009A4203D00F9B67E50120D8E794F842307A
:1013F000990611D5002F3FF411AFD7F808B0BBF113
:10140000000F3FF40BAF2B464246204616A9D847A3
:101410000F900F9B002BE5D1D4E9142194F84230B2
:10142000914203F02003B4D3002B3FF47EAD002F94
:101430003FF47BADFB68002B3FF477AD2946204697
:1014400098470F900F9B002B3FF46FADCAE7002128
:101450008A6A496B1269503A91423FF6DFAE112B0E
:101460000FD194F81831002B7FF45FAD41F20603E1
:101470001093109A9A4202D1142384F84630109B9C
:101480001AE594F84430002B7FF44FADCDE90033DA
:1014900016AA4023204613A9FFF73FFB41F203039E
:1014A0001090109A9A42EAD1E06C00F081F994F819
:1014B0001831A3B104F1B403E06C00931EAA04F147
:1014C000940316A900F0E4F81090109B9BB1002340
:1014D000F370142384F8463041F20603ECE4E76C21
:1014E00000F06AF9039000F06BF9039B00901EAACC
:1014F000384616A9E6E70123F37084F8443014E572
:10150000002316AACDE900332046042313A9FFF7D0
:1015100004FB41F203031190119A9A4202D0119BED
:10152000059317E5D4F888202D4B9A4205D0142353
:1015300084F8463041F20503F2E70123F37094F892
:101540004530DA0707D5EF682FB104222B68104623
:1015500004F18401B84794F845309B0707D5EF683C
:101560002FB104222B68104604F18401B847236E82
:1015700063B36F6857B34FF0FF3304F18001042267
:1015800012A81293029102F07BF920B104222B6879
:1015900002991448B84704F168090422494612A880
:1015A00002F06EF990B100239B6A1422D3F81080E8
:1015B00004F16C0108F10800D5E90037B847D5E916
:1015C00000370422494608EB0200B8470123B370F4
:1015D0000E2384F846300023A2E741F20700BAE464
:1015E000E320BBDE0480010030B50824094B002550
:1015F0005C66012403F5FE235C6001449D601A6172
:10160000DC60884201D1586A30BD10F8012B1A62A3
:10161000F7E700BF00900050F8B516464FF40052AF
:101620001D46114B04469A660222C3F860220F46FB
:1016300001F07CFEDDE90612204601F07BFE00236E
:1016400084F8387063623368C4F839307368C4F85A
:101650003D30B368C4F841302B0C6DBA84F8453086
:10166000A4F84650F8BD00BF0090005030B50D46BC
:1016700085B0194600F12803CDE90152009300F12D
:10168000240200F1380301F0A1FE05B030BD0000D6
:101690002DE9F041B0B014460646369D00286AD0C8
:1016A000002968D0002A66D0002B64D0002D62D0BB
:1016B00006224FF400500692304A20AF9066032075
:1016C000C2F860020022BE4609920C920F920A46AE
:1016D00001F12008F446106851680832ACE80300B4
:1016E0004245E646F6D122460DF1A00C04F1200E4B
:1016F000644610685168083203C47245A446F7D1A5
:101700000DF1400C1A46644603F1200E2346106882
:101710005168083203C372451C46F7D12B4618ACFA
:101720002035224618685968083303C2AB42144674
:10173000F7D14023CDE90A73089320230AAA0E9318
:1017400003AB07CACDF81CC00D9683E8070007ABB2
:1017500093E807008DE807000DAB0ECB084801F0B9
:101760000FFC0690069B40F20460002B08BF00208F
:1017700030B0BDE8F08140F20160F9E70090005020
:1017800090BB00004FF40052074B10B59A6602223E
:101790000446C3F8602200F0CFF82046BDE81040B0
:1017A000002100F0CDB800BF0090005000F0CDB88F
:1017B000014600F0D7B80000004870474CE307002E
:1017C000004870476CE307000048704786E2070056
:1017D0002DE9F34799460A9B0C46196805463F29AF
:1017E000164642D85A68002A41D0224A002E14BF19
:1017F000B046904601F03F07091928BF5A681960A2
:1018000024BF01325A60AFB1C7F1400AA24521D8C6
:101810002946524609EB070002F042F801234146EF
:1018200000934A463346002000F0A3F8B046403CFF
:1018300055443C443F2C0CD9A3092A460093414609
:101840003346002000F095F824F03F031D4404F0D7
:101850003F0400272CB12246294609EB070002F07D
:101860001FF8002002B0BDE8F0879046C2E7DFF81D
:101870000480BFE71CBA000030B405460846114694
:101880001A46DDE9023425B931B1029430BCFFF7C4
:101890009FBF024830BC70470846FBE780AFFFFFA0
:1018A0002DE9F0411746146886B01E46E3008DF816
:1018B0000F30630952688DF80E30630B8DF80D30D0
:1018C000630D8DF80C30D30003EB54738DF80B309F
:1018D00004F03F045309372C8DF80A304FEA523395
:1018E0004FEA525205468DF80820884694BFC4F14D
:1018F0003802C4F17802CDE900178DF809300D499E
:1019000003460020FFF7B8FF082143462A46009708
:101910000DEB0100FFF75CFF284605F1200350F8AE
:10192000042B984246F8042BF9D1002006B0BDE8FC
:10193000F08100BF3CBA00006822002101F0D7BF4F
:101940000023C0E900331846704707B500F12803AB
:101950000190009300F108030020FFF78DFF03B012
:101960005DF804FB02460B4600F128010830FFF742
:1019700097BFF0B51D4693B0002837D1189B06904D
:101980009B01CDE904230AAB0A461E4601F120075C
:101990001C4610685168083203C4BA422346F7D186
:1019A00000230796099301F09FFD0446D8B9202330
:1019B000089304AB93E807008DE8070007AB042009
:1019C0000ECB01F04BFC074601F09AFD8FB92B4678
:1019D000324612AE154603CDB542186059602A460C
:1019E00003F10803F6D1204613B0F0BD6FF0710487
:1019F000F9E76FF06F04F6E7FEE70000064B0748D3
:101A0000DA1C121AC11E22F00302994288BF00227A
:101A1000034901F045BF00BF601000200010002006
:101A200090020100064B0748DA1C121AC11E22F070
:101A30000302994288BF0022002101F058BF00BF75
:101A4000A02300206010002008B500F009F8FEF780
:101A5000D3FEFFF7D3FFFFF7E5FFFEF77BFE0000A5
:101A60004FF400414FF0FF30124B134A10B59A600B
:101A7000D3F8882042F47002C3F888200F4A916698
:101A800001F1884101F5005210664FF6DF70506693
:101A90000220C3F8D000BFF34F8FBFF36F8F08242D
:101AA0004FF440330648C0F88041D36004600B61B6
:101AB00010BD00BF00ED00E00000000000900050ED
:101AC00000E100E0014B1868704700BF04100020DF
:101AD000084B1B6F03F00703022B04D0032B05D028
:101AE000012B05D0FEE7044B18687047034BFBE75A
:101AF00003487047008000500410002008100020A8
:101B0000002D310108B5FFF7E3FF054B1B6FC3F351
:101B100003330133B0FBF3F0024B186008BD00BF84
:101B200000800050001000200048704700B4C4043A
:101B3000014B1868704700BF081000200020704754
:101B400000487047002D31014FF4004070474FF4BA
:101B50007A707047014B1868704700BF0C10002066
:101B6000044BD3F88420D206FBD4D3F88400C0F30E
:101B7000811070470040005038B5104B0546D3F82F
:101B800020310C4603F00303022B0BD0032B0DD0A6
:101B9000012B0FD1FFF796FF052305B1286004B193
:101BA000236038BDFFF7C4FF0323F6E7FFF7C8FF44
:101BB0000223F2E700231846EFE700BF0080005041
:101BC00073B50D4600210E4B0191D3F880410646B6
:101BD00004F00304012C09D0022C0CD00C460EB1E9
:101BE000019B336005B12C6002B070BD01A8FFF706
:101BF000C3FF0F24F3E7FFF7A3FF0190EFE700BF58
:101C00000080005038B5174B0546D3F824310C46F8
:101C100003F00703013B052B20D8DFE803F0030F97
:101C2000171B0B13FFF74EFF052305B1286004B106
:101C3000236038BDFFF746FF0623F6E7FFF778FF7E
:101C40000323F2E7FFF774FF0423EEE7FFF778FFC3
:101C50000223EAE7FFF772FF0723E6E700231846AF
:101C6000E3E700BF0080005038B5104B0546D3F8BD
:101C700040310C4603F00303022B0BD0032B0DD095
:101C8000012B0FD1FFF760FF092305B1286004B1D4
:101C9000236038BDFFF75EFF0823F6E7FFF757FF25
:101CA0000B23F2E700231846EFE700BF0080005047
:101CB00038B5134B0546D3F800320C4603F0070342
:101CC000013B032B18D8DFE803F0020A0E12FFF7DE
:101CD0003BFF092305B1286004B1236038BDFFF73D
:101CE00039FF0823F6E7FFF732FF0B23F2E7FFF790
:101CF00009FF0E23800AEDE700231846EAE700BF3C
:101D00000080005038B5104B0546D3F840320C46E1
:101D100003F00303022B0BD0032B0DD0012B0FD1AB
:101D2000FFF712FF092305B1286004B1236038BD15
:101D3000FFF710FF0823F6E7FFF709FF0B23F2E791
:101D400000231846EFE700BF0080005038B5104B65
:101D50000546D3F860310C4603F00303022B0BD089
:101D6000032B0DD0012B0FD1FFF7EEFE092305B198
:101D7000286004B1236038BDFFF7ECFE0823F6E7C6
:101D8000FFF7E5FE0B23F2E700231846EFE700BF5D
:101D90000080005010B40D4C0B46D4F8204204F0E3
:101DA0000304012C0AD0022C0CD008B100210160E0
:101DB0000BB100221A605DF8044B70475DF8044BCC
:101DC000FFF7DABE5DF8044BFFF74EBF008000500E
:101DD000B0F5207F1FD009D8B0F5007F15D003D80B
:101DE00068B1B0F5C07F0AD000200CE0B0F5607F8C
:101DF000FAD10B4BD3F88000C0F3011003E0084B7D
:101E0000186FC0F3033001307047054BD3F89000D2
:101E1000C0F30460F7E7024B186FC0F38020F2E7CD
:101E2000008000504FF400320E4B014610B50020E8
:101E30009A66FFF7CDFF41F6713248430A490B4BD2
:101E400088428CBF4FF480100020DC69DA639A6806
:101E500022F4401202439A60E20344BF0022DA6394
:101E600010BD00BF00900050005A620200000350F5
:101E700008B5FFF759FEBDE808400021FFF7D2BFC3
:101E8000420910B510D0012A10D00B4B0B4C022A7E
:101E900018BF234600F01F0051B103F58053012203
:101EA00002FA00F0186010BD1346F3E7044BF1E7A7
:101EB00003F50053F3E700BF6880005060820050D4
:101EC000648000501FB5002380280446019371D020
:101ED0002AD8002872D0A0F12004412C32D8412CFD
:101EE00030D8DFE804F06B6E6B6E7D7D7D7D6E6EAD
:101EF000873C9D623C6E6E6E2F2F2F2F2F2F8254AA
:101F00006E6E6EA7A26E2F2F2F2F2F2F2F2F2F2FFA
:101F10002F2F2F6B2F6B6B6B7D2F2F2F2F2F2F2F93
:101F20002F2F2F2F2F2F6B6BB0F5806F58D021D80C
:101F3000B0F5007F4FD008D8B0F5807F5FD0B0F506
:101F4000C07F3BD0019804B010BDB0F5607F42D097
:101F5000F8D8B0F5207F34D0B0F5407FF2D1FFF74C
:101F6000D1FD02464FF42070FFF732FFB2FBF0F0D4
:101F7000400821E0B0F5C06F52D00DD8B0F5A06F89
:101F800033D0B0F5B06F35D0B0F5906FDAD1002115
:101F900001A8FFF737FED5E7B0F5E06F45D0B0F503
:101FA000F06F47D0B0F5D06FCCD1002101A8FFF77A
:101FB0007FFEC7E7FFF78CFD0190C3E7FFF7A2FDA7
:101FC000FAE7FFF79FFD02464FF42070FFF700FF8E
:101FD000B2FBF0F0F0E7FFF77BFD02462046F5E7A5
:101FE000002101A8FFF7C8FDACE7002101A8FFF719
:101FF000D1FEA7E7002101A8FFF7E2FDA2E70293C7
:102000004FF0E0231B695B0705D5FFF77BFD0290CE
:10201000029B019396E703A902A8FFF725FEF7E7C5
:10202000002101A8FFF720FE8CE7002101A8FFF79F
:1020300069FE87E7002101A8FFF788FE82E700001C
:1020400008B58020FFF73EFF034B98429EBF4FF438
:102050008032024B1A6708BD005A620200A000508D
:102060000029CCBF01210021FFF7DCBEB0F5207FA5
:1020700010B50C4642D008D8B0F5007F33D003D855
:1020800088B1B0F5C07F0ED010BDB0F5607FFBD138
:102090001F4B013CD3F8801021F0300141EA0414B9
:1020A000C3F88040F0E7FFF7E3FE00F035F84FF4A7
:1020B0008031184A164B1167196F013C21F47041A9
:1020C00041EA04341C67FFF71DFD0446FFF748FD95
:1020D000C0F102012046FFF7C3FF00F023F8BDE87E
:1020E0001040FFF7ADBF0A4B013CD3F8901021F030
:1020F000F85141EA0464C3F89040C5E7044B013C41
:10210000196F21F4806141EA84241C67BCE700BF99
:10211000008000500090005002214FF42070FFF723
:10212000A5BF000008B54FF4C070FFF7CBFEBDE8B7
:102130000840044988428CBF022101214FF42070DD
:10214000FFF794BF80F0FA02B0F5807F70B50C46BF
:1021500000F0F88029D8382800F04B8110D82438B6
:10216000092816D8092814D8DFE810F0DC00DC00B4
:10217000DC00DC0013001300CD0013004700330126
:10218000522800F0CF8005D83D2851D03E2800F0DD
:10219000418170BD8028FCD18B1E052B00F2B080E0
:1021A000DFE803F0AB99AE69AEA8B0F5D06F00F0F0
:1021B000108132D8B0F5A06F00F01B8116D8B0F5B1
:1021C000806F00F0AF80B0F5906FE2D1023C052C3B
:1021D0008CBF0021974B984A98BF195DD2F82431E3
:1021E00023F007030B43C2F82431D2E7B0F5B06FF8
:1021F00000F08980B0F5C06FCBD1083C032C8CBFB8
:1022000000218E4B8C4A98BF195DD2F8403123F0E3
:1022100003030B43C2F84031BBE7B0F5006FD5D0E4
:1022200016D8B0F5E06F00F0F580B0F5F06FB0D1E2
:10223000083C032C8CBF0021814B7F4A98BF195D5D
:10224000D2F8603123F003030B43C2F86031A0E7FA
:10225000B0F5086F9DD1CC1E052C8CBF0021794BA9
:10226000754A98BF195DD2F8003123F003030B4380
:10227000C2F800318DE7002502260121022000F07E
:1022800003F9FFF7F5FDFFF747FF4FF480316E4B81
:10229000694A1967136F23F0070333431367FFF786
:1022A00031FC0646FFF75CFCC0F102013046FFF747
:1022B000D7FE0121002000F027F9FFF733FFFFF7D9
:1022C000BFFE002D7FF465AF032C7FF462AF0122C7
:1022D0005E4B9A625DE74FF400225B4B0E465A66F6
:1022E000012203F540539D6A03F58053C5F3400571
:1022F0009A62C2E700250426BFE700250126BCE755
:1023000000252E46B9E7022C03D0A4F10F00444269
:102310004441494BD3F8801121F003010C43C3F829
:10232000804136E7023C032C8CBF0021484B424AD7
:1023300098BF195DD2F8203123F003030B43C2F894
:10234000203126E7A1F10804082C3FF622AF01A3B3
:1023500053F824F079230000792300009321000032
:1023600079230000A723000093210000932100009F
:1023700093210000792300004FF480322E4B354921
:10238000586E03F580535A660B6A43F001030B62E3
:10239000C1035CBF304B5A664FF0E022136923F053
:1023A00004031361F5E64FF48032234B2949586E3C
:1023B00003F580535A660B6A23F001030B62C303D3
:1023C0005CBF254B5A664FF0E022136943F00403CB
:1023D000E7E7083C062C8CBF0021204B164A98BF2B
:1023E000195DD2F8003223F007030B43C2F8003224
:1023F000CFE60F2C0CD0102C14BF002102210E4A66
:10240000D2F8203223F003030B43C2F82032C0E697
:102410000121F4E7083C032C8CBF0021104B064A35
:1024200098BF195DD2F8403223F003030B43C2F882
:102430004032AEE684BA00000080005080BA00004E
:1024400080BA000091BA00000090005000E00050F7
:102450007CBA000000C0075000A000508ABA0000FB
:1024600080BA0000EFF3108072B6704700B962B610
:102470007047EFF31180302383F31188704780F3A6
:102480001188704770470000F8B504461C4BD3F81C
:102490008420D106FBD4D3F88430C3F381139C424B
:1024A0002CD0FFF715FB012C064602D12146FFF781
:1024B000D7FDFFF7D7FF4FF00072124B07465A6661
:1024C0002046FFF7DFFF4FF480630D4D621E9340FF
:1024D0002B676B6E9A0103D4D5F884309B060AD51E
:1024E0003846FFF7C3FF022C08D13046BDE8F8405C
:1024F0000021FFF7B5BDD5F88430EAE7F8BD00BF8D
:10250000004000500060005007B518B90191FFF776
:10251000DFFA0199064B1B7843B1064B984205D868
:10252000012003B05DF804EBFFF7AEBF0220F8E72F
:102530009B100020005A6202F0B5114A114C124E55
:1025400000F00105E3695F0713D40DB9334213D1DD
:1025500003EA00078F4207D10B4A1A40002A14BF32
:102560006FF001000020F0BD013AEBD16FF00200E6
:10257000F9E74FF0FF30F6E76FF00100F3E700BF37
:102580008096980000000350020001004FF40032D2
:1025900038B50F4B0F4C9A6641F671330122E5694D
:1025A000E3630D4B0021DA60022360612120236187
:1025B00005F48035FFF7C0FF10B92120FFF7BCFFFD
:1025C0000122064BDA600DB10023E36338BD00BF82
:1025D00000900050000003500010035000200350F2
:1025E0002DE9F04F06464FF4402501202C4CDFF832
:1025F000BCC04FF40037CCF8040044F82650302516
:102600000024DFF8ACE0DFF8AC9005FB06E5EC65F4
:102610002C662C67234CDFF8A0A0A76641F6713723
:1026200004F51C34D4F81C80E763E76800FA06F66A
:102630000743E7604BB9E26818F4803F22F00102DB
:10264000E26000D0E363184628E001F5005000EA9C
:102650000900401A984228BF18466161D4F81CB09E
:1026600087081BF0040F17D1013F3F0147F0605767
:102670006F66AA66C5F86CA0CCF82460DEF83470EA
:102680003E42FBD0084F01447E630427CCF828600B
:10269000024427611B1ACDE74FF0FF30BDE8F08FF1
:1026A00000400450009000500020045000100450DE
:1026B0000000045000E0FFFF18000350C369032B23
:1026C0009FBF00EB83020133D160C36170470000FC
:1026D0002DE9F843C3690446042B6ED8FFF7C2FE08
:1026E000374B384A596E4FF480333748536602F5FA
:1026F000E622C2F80006C90300F50070C2F804061D
:102700005CBFA2F5E4225366304A314BE6691360A0
:1027100023683048536004F10C0303EB8601121B5D
:102720008B4202EB030520D163680027344603BBCC
:1027300039462546254A41EA066191601368516889
:1027400092684B4053400022AA4231D140F82230D7
:10275000BFF34F8F2049214BCA6802F4E062134354
:10276000CB60BFF34F8F00BFFDE753F8047B2F60B2
:10277000D6E70022D3F8009000EB840ED3F808C00F
:10278000F046CCF3990C624502EB070102EB04051D
:102790000EF1040E06D35A68012ACBD00F462C4600
:1027A0005B68C4E759F822100132C8F80010E5E769
:1027B00050F8221001324B40C6E7BDE8F88300BF55
:1027C0000080005000900050004C00A0004C00B071
:1027D000DEC0ECE50C4C00B000ED00E00400FA05B2
:1027E0004FF480311A4B30B5586E03F5805359665B
:1027F00003F5E623D3F8043603F1C042A2F5804284
:10280000B2F5606F01D9002030BDC20358BF114A34
:1028100003F1805358BF516618680F4A1946904219
:10282000F1D11A69501DB0F5007FECD203F114000C
:10283000940000EB82000022834205D10B195869F5
:10284000831A58425841DFE753F8045B6A40F3E7C4
:102850000080005000A00050DEC0ECE538B5104B01
:1028600010495A6E4FF48033D20358BF0E4A4B665C
:1028700001F5E621D1F80456044658BF536640B12D
:10288000FFF7AEFF40B1002005F180556B68236073
:1028900038BD4FF4E020FBE74FF47E00F8E700BFBF
:1028A000008000500090005000A000504FF4803293
:1028B000064B5A6603F5E6235B69C3F38512827003
:1028C00003F03F021B0B42700370704700900050F2
:1028D00013B51AB10024009400F04CF902B010BDF9
:1028E00060B5054619B10139B1F5806F10D2094EB6
:1028F000F06810F48030FBD143EA0121120741EA6D
:10290000050302F08052134343F00043736060BD3F
:102910000120FCE70020025CF0B58DB005AC84E836
:1029200007001C46A1420D4628BF2546129B0DB349
:1029300004B311462846002603F53813CDE90A46AC
:102940008DE8030003F241135F02C5EB43230993B3
:1029500002950CAA059B12E90700069500F098FC69
:10296000A54207D23146621B381B0DB0BDE8F040CE
:1029700000F08CBC0DB0F0BD30B591B001AC84E876
:1029800007001C461346DA0049BF029A6200033270
:1029900022F00302014604A8FFF79AFF04A800F002
:1029A000FFF81499224601F5381101F241114D0248
:1029B00008A8C4EB41210023FFF78AFF05F5007149
:1029C00000232246091B0CA8FFF782FF0CA800F089
:1029D000E7F808A904A800F0BDF811B030BD10B5A3
:1029E0008CB005AC84E807000E9ADDE9060102F51B
:1029F000381202F5A0725202CDE9092300228DE8B7
:102A000003000B9202930CAA059B12E9070000F049
:102A10003FFC0CB010BD00000122054B9A60DA6843
:102A2000D203FCD4D86820F00F000004000C7047DB
:102A30000020025C2DE9F04B4FF000089946074654
:102A4000164645468AB003AC84E8070002F0805B76
:102A500007AC049A424502D80AB0BDE8F08B139B3C
:102A600013B9AA1E012A0AD9129BCDE90779099642
:102A700000955BB194E807004B46FFF74DFFBBF1B3
:102A8000000F00D14F440135C844E2E74B4694E8BB
:102A90000700FFF7A4FFF2E782B01FB507930A9B78
:102AA00004AC8B4228BF0B4604E907001048D10054
:102AB000079948BF03330160099948BF23F0030316
:102AC00023F0704301F0E041194341F0005181606F
:102AD000002102F0E042019C134343F00053C16027
:102AE00004618361416304B0BDE8104002B07047E7
:102AF0000000025C3F22034B1A631022DA610322BA
:102B00009A6370470000025C024AD36B9B07FCD4B7
:102B1000704700BF0000025C034B986A10F024006D
:102B200018BF0420704700BF0000025C08B5FFF723
:102B3000F3FF064BDB6B23F47F4323F0EF030343E8
:102B40001EBF0122024BC3F8FC2F08BD0000025C2F
:102B500000F0FF3F032208B5054B186019615A6366
:102B6000FFF7C8FFFFF7D0FFBDE80840FFF7DEBF63
:102B70000000025C10B522F0704200F11004C0E9C0
:102B80000014826041B1826803F070431343836094
:102B9000029BC360204610BD836843F08043F6E784
:102BA00001234360C36843F02003C360836843F09C
:102BB000005383607047C36803F00F03012B02D0FA
:102BC000033B012B08D8C36801F01F0143EA01232E
:102BD000C3608368194481607047000042680346FF
:102BE000182A10B50AD0202A1DD0102A2BD1174A36
:102BF000D2F80424D4010AD4012013E0134AD2F8F5
:102C000004249001F8D50A6842F008020A601048CE
:102C10001A6882424FF000000ED10A6842F040026A
:102C20000A60586010BD094AD2F804245201E3D565
:102C30000A6842F00402E9E7064CA242F2D10A68AF
:102C400042F08002ECE70720ECE700BF0000025CE6
:102C50009C1000209D1000200B4607B50749D1F8B5
:102C60000414C90708D5002100920246084600F066
:102C70001FF903B05DF804FB0120FAE70000025CD5
:102C80000B4607B50749D1F80414C90708D50092C7
:102C900001210246002000F00BF903B05DF804FBAF
:102CA0000120FAE70000025C1FB50A4CD4F8044486
:102CB00064070CD5CDE900120021069C0222CDE963
:102CC00002340346084600F01DF904B010BD01208F
:102CD000FBE700BF0000025C37B54D68044645B114
:102CE0008C680093096842EA04032A46FFF742FF12
:102CF0000446204603B030BD2DE9F04F2DED028B88
:102D0000D1B0019008EE903ADDE95D59DDE95F87C9
:102D10000420002301AECDE9030305AB08EE102A21
:102D200007C983E80700314618460296619CFFF701
:102D300055FF0646002840F0B5805C9A08AB07CAEC
:102D400083E80700D8F80420D9F804304942134436
:102D50005B4203F00F0B7B6801F00F0A5B420093AC
:102D6000AB68DA0041BF6B68033323F003036B6089
:102D7000A368DB0041BF6368033323F00303636090
:102D80000023D9F80400D8F80420CDE913338118C2
:102D90005944CDE90C1369680B93494201F00F01C6
:102DA000CDE90E3161681093494201F00F01CDE980
:102DB0001131CDE9153317935C9B5B684BB97B6888
:102DC0001343034305D110218A46CDE9091314AA00
:102DD000089211234FF0005202A930A8FFF77CFFA0
:102DE00040F611034FF0005205A9FFF775FF42F6B8
:102DF00011034FF0005218EE901AFFF76DFF44F6E2
:102E000011034FF0005218EE101AFFF765FF41232F
:102E100000224946FFF760FF4FEA0B234FF00052B4
:102E2000414643F04103FFF757FF4FEA0A234FF0B3
:102E3000005243F0010308A9FFF74EFF009B4FF03B
:102E400000521B0203F47063394643F00103FFF79D
:102E500043FF1038FFF7A4FE00230BA91A4618A859
:102E6000FFF73AFF002329461A46FFF735FF0023F4
:102E70000EA91A46FFF730FF002321461A46FFF736
:102E80002BFF002311A91A46FFF726FF00236299A2
:102E90001A46FFF721FF1038FFF782FE18A930A865
:102EA000FFF758FE304651B0BDEC028BBDE8F08F05
:102EB000F0B51C465B6815468DB01A07129E1AD1F4
:102EC000CBB17268934216D10C4B0D4A53F8217066
:102ED00009AB07CA83E807001A462946CDE905333E
:102EE000CDE90333CDE90163009447F48070FFF727
:102EF00003FF0DB0F0BD0720FBE700BFC8BA00001C
:102F000098BA00002DE9F0418CB0DDE9127C7C68B4
:102F10001E46DDE9143E200728D13CB3DCF804004E
:102F2000844223D15868102820D1DEF804001028EC
:102F30001CD10F4809AC50F821500E4951F822809D
:102F40000D4A07CA84E8070045EA080022463146D0
:102F5000CDE9054ECDE90344CDE901C4009740F029
:102F60003000FFF7C9FE0CB0BDE8F0810720FAE79A
:102F7000C8BA0000A4BA000098BA000000697047FF
:102F800070B586B003AE054686E80E00FFF7F6FF83
:102F9000202804463AD86A6800EB80039A4203D09E
:102FA000062343439A4233D10B9BB3EB440F2FD1FB
:102FB0000E9A93422CD1012221463120EB68FFF773
:102FC0008FFC08BB95E807000123CDE900332346B9
:102FD000FFF730FD08230AAA009307CA2346FFF72C
:102FE000CBFC0C23009396E807002346FFF794FCE4
:102FF0000A230DAA009307CA2346FFF7BDFCFFF77B
:103000000BFD002818BF032006B070BD0120FBE7B0
:103010000720F9E70138C0B206289ABF014B185CB7
:1030200000207047A4BB00000138C0B206289ABF38
:10303000014B185C00207047ABBB00000138C0B2E8
:1030400006289ABF014B185C00207047B2BB0000F5
:103050002DE9F04FBBB0804603A880E80E007E4B00
:103060009DF81091D3F80024D40603D401203BB07E
:10307000BDE8F08F08F1FF32059EDDE903A7062ABF
:1030800000F2E780DFE802F0041A20262C32380034
:10309000D3F80C34D807E9D5012307930023B9F1FD
:1030A000010FCDE908332DD0B9F1020F00F0928065
:1030B0004046FFF7C3FF6324054631E0D3F80C34E4
:1030C0009907D3D50223E8E7D3F80C345A07CDD5B6
:1030D0000423E2E7D3F80C341B07C7D50823DCE749
:1030E000D3F80C34DD06C1D51023D6E7D3F80C3461
:1030F0009C06BBD52023D0E7D3F80C345806B5D5B1
:103100004023CAE7544BD3F80C34D903AED5079B00
:10311000404643F4C0630793FFF77CFF0324054652
:1031200013230422009307A94FF0005312A8FFF7BE
:1031300021FD5146009446F000533A46FFF71AFD30
:103140004FF0000B04465E46DDF814A1469B9B45FC
:1031500064D1B9F1030F0AD14046FFF76FFF8742F0
:1031600077D14046FFF760FF0138304271D1002E21
:1031700067D1032332462046009308A93346FFF760
:10318000F9FC04260446A4F110000290FFF708FDA4
:1031900031460298FFF70FFD489AAA4228BF2A46F7
:1031A0001446002A53D00023479900930AA8499B4C
:1031B000FFF7E0FC2A1B04D0002319460093FFF719
:1031C000D9FC1038FFF7ECFC12A80AA9FFF7C2FCE3
:1031D00000204CE7204BD3F80C24D2037FF546AFF8
:1031E000D3F80C349B037FF541AF97B17C4239464D
:1031F000374604F00304079B404643F4E06307931B
:10320000FFF708FF24023E4605460F4644F0A3049C
:1032100086E704210DF1200A0C46ECE7DAF80420D9
:1032200016444AB1032300932046DAF80830DAF84E
:103230000010FFF79FFC04460BF1010B0AF10C0A8A
:1032400084E716F0030618BFC6F104069BE70AA838
:10325000B0E707200BE700BF0000025C70B58AB042
:1032600007AC84E80E0003AD064694E8070085E845
:103270000B00012302930EAB01930323009330460E
:1032800094E80E00FFF7E4FE0AB070BD00F02FBB1B
:1032900082B02DE9F0418AB005AE12F0804586E893
:1032A0000700149C119333D1139B8C4228BF0C460A
:1032B00013F080538846129A02D1944228BF1446D4
:1032C00034B30F2C13D9DDE912018DE80300029409
:1032D000119B96E80700FFF7DFFBFFF70BFCFFF7FA
:1032E00013FC0AB0BDE8F04102B0FFF71FBC059E19
:1032F000119F93B1A8EB0502042A3B6828BF042262
:10330000701909A90435099300F0CAFAAC42F1D842
:103310000AB0BDE8F04102B0704722463946304657
:103320000AB0BDE8F04102B000F0BABA2422002190
:1033300000F0DDBA70B515460E4624220021044681
:1033400000F0D5FA25F04003802B02D0B5F5807F40
:1033500008D12046314640F8045BEA0800F0A0FAA4
:10336000002070BD6FF01F00FBE730B504680D460C
:1033700024F0400180298BB002D0B4F5807F22D1A7
:103380000021CDE9031210220430E408CDE9052123
:10339000CDE9073201900294099100F0A5F868B9CF
:1033A000012D07AA04A901A80AD1FFF755FC04467C
:1033B00000F0A6F8204318BF6FF06F000BB030BDCF
:1033C000FFF75EFCF3E76FF07100F7E72DE9F04FD0
:1033D00082460F469846164691B012B31568DAF841
:1033E000003023F04002802A02D0B3F5807F73D1F1
:1033F000DB08002405931023CDE908341B9BCDE99D
:1034000006480AF104023B44049202930DF11C0B9E
:10341000BC4208D3002E65D00020356011B0BDE855
:10342000F08F1546DBE75DB11B9B1A9A1B5D525D61
:10343000013553401C9A05F00F0513550134E7E799
:10344000A7EB0409B9F10F0F1ED91B9B29F00F0937
:103450002344CDE90A391C9B0C952344CDE90D3951
:103460000F9500F041F80028D8D15B460DAA0AA9B3
:10347000CDF800B004A8FFF717FC039000F040F867
:10348000039B03432BD14C441B9B03EB04091C9B64
:103490001C44029B4B4501D13C46B9E78DB94246DD
:1034A000012150461A9BFFF760FF0028B6D108F1B2
:1034B000100212F8013D0133DBB213700BB99045D5
:1034C000F7D11A9A19F8013B525D0135534004F8BF
:1034D000013B05F00F05DCE76FF071009EE76FF030
:1034E0006F009BE7304699E74FF40052034B0020F2
:1034F0009A660322C3F86022704700BF0090005014
:103500004FF40052034B00209A660322C3F8602256
:10351000704700BF00A0005008B503218020FEF7CF
:1035200013FE03214FF48060FEF70EFE03214FF4DB
:103530009060FEF709FE08214FF4C060FEF704FE1C
:1035400008214FF4F060FEF7FFFD08213E20FEF752
:10355000FBFD08212D20FEF7F7FD002008BD00002F
:1035600053B94AB9002908BF00281CBF4FF0FF31EA
:103570004FF0FF3000F082B9ADF1080C6DE904CED8
:1035800000F006F8DDF804E0DDE9022304B070473E
:103590002DE9F04F099D04460F46002B48D18A4281
:1035A000944661D9B2FA82F343B1C3F120019F403E
:1035B00002FA03FC9C4020FA01F10F434FEA1C4140
:1035C0001FFA8CFE220CB7FBF1F601FB167706FB07
:1035D0000EF042EA0742904208D91CEB020206F1C3
:1035E000FF3702D2904200F237813E46121AA4B24F
:1035F000B2FBF1F001FB102200FB0EFE44EA024494
:10360000A64508D91CEB040400F1FF3202D2A645FE
:1036100000F21C81104640EA0640A4EB0E0400268E
:103620001DB1DC400023C5E900433146BDE8F08F01
:103630008B4209D9002D00F0FD800026C5E900016C
:1036400030463146BDE8F08FB3FA83F6002E4BD1F9
:103650008B42C0F0F280824240F2EF803046002D73
:10366000E3D0C5E90047E0E702B9FFDEB2FA82F332
:10367000002B40F09D80891A4FEA124E97B2012626
:10368000200CB1FBFEF20EFB121140EA014107FBD8
:1036900002F088420FD91CEB010102F1FF382CBF68
:1036A0004FF001094FF00009884203D9B9F1000F2A
:1036B00000F0CF804246091AA4B2B1FBFEF00EFB27
:1036C000101100FB07F744EA0144A74208D91CEB9C
:1036D000040400F1FF3102D2A74200F2B480084690
:1036E000E41B40EA02409BE7C6F12007B34001FA21
:1036F00006F422FA07FCF940B2404CEA030C20FA27
:1037000007F34FEA1C491C431FFA8CFE00FA06F32C
:10371000200CB1FBF9F809FB181140EA014108FB44
:103720000EF088420FD91CEB010108F1FF3A2CBFC3
:103730004FF0010B4FF0000B884203D9BBF1000F93
:1037400000F08D80D046091AA4B2B1FBF9F009FB54
:10375000101100FB0EFE44EA01418E4507D91CEB17
:10376000010100F1FF3401D28E457FD8204640EAA6
:103770000840A1EB0E01A0FB029841454C46C6460D
:1037800002D306D14B4504D20138B9EB020468EBF1
:103790000C0E002D70D01A1B61EB0E0122FA06F3FD
:1037A00001FA07F7F14000261F43C5E900713CE725
:1037B00002FA03FCC3F1200001FA03F221FA00F639
:1037C0004FEA1C4E24FA00F11FFA8CF79C4011437B
:1037D000B6FBFEF00A0C0EFB106642EA064200FB46
:1037E00007F696420ED91CEB020200F1FF382CBFFF
:1037F0004FF001094FF00009964202D9B9F1000FCC
:1038000031D04046921B89B2B2FBFEF60EFB162267
:1038100041EA024106FB07F28A4207D91CEB01018B
:1038200006F1FF3801D28A4223D84646891A46EA71
:10383000004625E72E462846F7E6841A61EB030387
:1038400001201F460BE76444023849E7644402380C
:10385000E1E6023A61442EE7023E6244C6E6A8F180
:10386000020861446FE702386244CBE702386144E2
:103870007DE7023E6144D9E72E46D6E6704700BF99
:103880000139024410B5904201D1002005E00378CF
:1038900011F8014FA34201D0181B10BD0130F2E70F
:1038A0000A44431E914200D1704710B511F8014BF4
:1038B000914203F8014FF9D110BD884210B501EBD8
:1038C000020402D98442234607D8431EA14208D0ED
:1038D00011F8012B03F8012FF8E7024401468A4250
:1038E00000D110BD13F8014D02F8014DF7E7024475
:1038F0000346934200D1704703F8011BF9E707B56F
:103900004368019303886846ADF8003000F0ABF8D7
:1039100003B05DF804FB0000014800F0B7B800BF39
:10392000A010002000F0AAB813B50446684600F0C5
:10393000B7F8BDF80430A279A3809DF8063000984E
:10394000C3F3000363F300022060A27102B010BD54
:1039500008B500F0A1F808B140F4805008BD08B5E2
:1039600000F09CF808B140F4805008BD08B500F0A4
:103970008FF808B140F4805008BD0000014800F005
:1039800017B800BFA0100020014800F093B800BF96
:10399000A01000200A460146014800F0BBB800BF55
:1039A000A0100020014800F015B900BFA0100020B1
:1039B00000230360436070474FF6FE72016082800F
:1039C000704700001FB50A79064B02920A68083159
:1039D0000192022200920CCB00F0BCFB05B05DF816
:1039E00004FB00BFC8BB000030B50B7985B00333C2
:1039F000029301F14403019302230C460546114A48
:103A0000009314310CCA00F0A5FB238A04F12C01A9
:103A10000293E36828460193237A009394E80C000C
:103A200000F098FB0546237AA4F845002279216826
:103A300084F8443004F14700FFF732FF284605B010
:103A400030BD00BFC0BB00001FB50B8A0293CB681E
:103A500001930B7A009391E80C00143100F07AFB8B
:103A600005B05DF804FB08B500F08AFE00F074FDB7
:103A700000F080F9BDE8084000F074B808B500F027
:103A80005FFE00B908BD00F0D1FDF8E700F0D8BA3C
:103A900000F036BE00F039BE00F02EBE00F02EBEA3
:103AA00010B5044600F03AF9A3796FF30003A3714F
:103AB00010BD000038B50546124B134CD4E9020185
:103AC00083E8030019462846FFF77CFFD4E9040188
:103AD00010220E4B83E80300194628461A72FFF79E
:103AE00083FFD4E906010222094B20341A7283E8CD
:103AF0000300DC60194628461A82BDE83840FFF70B
:103B0000A3BF00BFA4110020DCBB000000110020F7
:103B100058110020F8B504460D4B0E4D0F46D5E95F
:103B2000090183E80300194620461646FFF74AFFBD
:103B3000D5E90B010222084B1A7283E80300DF600B
:103B4000194620461E82BDE8F840FFF74DBF00BF72
:103B500084110020DCBB0000A81000200EB403B0CC
:103B6000704770477047000010B50C4630B9FCF73D
:103B70007DFB034B186023600423A380002010BD4D
:103B8000C411002010B50C4630B9FCF76DFB034B97
:103B9000186023600423A380002010BDC8110020FA
:103BA00001280B4604D1898821B1186801F086BA32
:103BB000002070470D20704701280B4605D18988E9
:103BC000012904D1186801F0A5BA002070470D2022
:103BD000704700002DE9F74306466D464FF008098F
:103BE000404C414B414F94E8030083E803001946E1
:103BF0003046FFF7E7FED4E9020187E803002846D4
:103C00003B4987F80890FFF7D7FE95E8030007F1D6
:103C10000C0383E8030039463046FFF7E5FED4E99C
:103C200004010C234FF00208324F87E803002846B6
:103C300031493B72FFF7C0FE95E8030007F10C0322
:103C400083E8030039463046FFF7CEFED4E906018B
:103C50002A4B2B4A83E803001946304683F8088034
:103C6000DA60A3F81090FFF7BFFED4E90801254BF6
:103C7000254A264FDA60012283E8030019463046C0
:103C80001A8283F80880FFF7AFFED4E90A0187E8BB
:103C9000030028461E4987F80880FFF78DFE95E847
:103CA000030007F10C0383E803003946194F30463F
:103CB000FFF79AFED4E90C0187E80300284616496D
:103CC00087F80880FFF778FE95E8030007F10C03FA
:103CD00083E803003946304603B0BDE8F043FFF700
:103CE00083BE00BF88BC0000DC130020D41200207B
:103CF000B93B00002C130020A13B0000241200203F
:103D0000C0BC000084130020C8BC00007C1200204E
:103D1000853B0000CC110020693B0000074B9A6CEA
:103D2000DB6C110A0270120C82701A0AC2701A0C33
:103D30001B0E417002714371704700BF0080E00F9D
:103D4000014801F0C9BE00BF48C200007FB5002392
:103D50000130CDE9043380B2054BCDE9010169465C
:103D600004200093039200F0FDFB07B05DF804FB14
:103D7000001400201B22014B1A807047FC13002006
:103D8000F7B50346CDE9001207460E4615464FF437
:103D90008040094A0949FFF7E1FE0022012311464C
:103DA0000420074C237067706680257103B0BDE85E
:103DB000F040FFF7CBBF00BF69BE0000C9BC0000E8
:103DC00000140020034610B5094A044609494FF47F
:103DD0008040FFF7C3FE0322074B02201A70002227
:103DE000A3F801401146BDE81040FFF7AFBF00BF88
:103DF00052BE0000FDBC00000014002030B50C468F
:103E000085B004A901E90C00054603460A4A4FF4AF
:103E100080400A490094FFF7A1FE05220320084BC9
:103E200002991A709DF80C205D705C8005B0BDE8A9
:103E30003040FFF78BBF00BF37BE000009BD000058
:103E40000014002037B5034605460C4600914FF498
:103E50008040094A0949FFF781FE0722084B0420E8
:103E60001A7000221146A3F80150A3F8034003B0D2
:103E7000BDE83040FFF76ABF1CBE00002DBD00004A
:103E80000014002038B5094A05460C460B464FF48D
:103E900080400749FFF762FE0B22064B29461A7045
:103EA00000202246BDE83840FFF750BF0CBE00009E
:103EB00052BD00000014002008B54FF48040074AAE
:103EC0000749FFF74BFE1322064B1A700022BDE88C
:103ED000084011461046FFF739BF00BFFBBD000088
:103EE00061BD00000014002073B50346144605466A
:103EF0000E4600924FF48040084A0949FFF72EFE13
:103F00000922084B31461A70A21C5A70032022461F
:103F10005D8002B0BDE87040FFF718BFE5BD00004E
:103F200067BD0000001400202DE9F3411C469046B7
:103F3000CDE9001307460E4603460A4A4FF4804077
:103F40000949FFF70BFE1123224641460520074D84
:103F50002B70231D6B706F80AE8002B0BDE8F04106
:103F6000FFF7F4BECABD000085BD000000140020AC
:103F700070B50D4603780C4A04460C494FF4804056
:103F8000FFF7ECFD00230A4E691E204689B27380BC
:103F900000F002F9024628B171882078BDE870402F
:103FA000FFF7EEBE70BD00BFC2BD0000AFBD000098
:103FB000FC130020024610B500B3114B1968888825
:103FC00090421BD398880024904281BF0120096849
:103FD000988099609868998828B904B198604FF6DC
:103FE000FF729A8009E08A4204D0013101240068FE
:103FF00089B2F1E70CB19A80986010BD0020FCE70F
:1040000008140020036937B514460D46828A63B14F
:104010004FF6FE718A4208D1002069460090ADF843
:104020000400984728B103B030BD2B6000202280E7
:10403000F9E7009B2B60BDF804302380F3E7000014
:104040004FF6FF72014B18609A80704708140020E9
:1040500010B50C46FFF7AEFF28B1D0E9010184E8A6
:104060000300002010BD0120FCE72DE9FF416D4653
:10407000044685E80C000E460A9FBDF82C80FFF729
:1040800099FF05460DB1B44205D94FF6FF7420469D
:1040900004B0BDE8F0812B7A9DF804209A4219D132
:1040A00000996868FFF7ECFBA0B9002FEFD0284615
:1040B0000DF10A0203A9FFF7A5FF58B9039949B109
:1040C000BDF80A30434505D142463846FFF7D8FBD4
:1040D0000028DCD001342D68A4B2D3E737B51546EB
:1040E0001C46FFF767FF70B1036973B14FF6FE72AC
:1040F000818A914209D1694601200095ADF80440BA
:10410000984703B030BD0120FBE70E20F9E710B55A
:104110000C46FFF74FFF40B1037B1C4207D114F060
:104120000C0F14BF0320022010BD0120FCE700206B
:10413000FAE738B515461C46FFF73CFF40B122466A
:104140002946FFF75FFF10B92B6803B9208038BDFF
:104150000120FCE713B5044602A800E90C00081D85
:1041600080E80C009DF810300B73059B0B61BDF8C7
:1041700018308B8200230B60236853B11A461B68EA
:10418000002BFBD11160A388013398B2A08002B04C
:1041900010BD2160F7E700002DE9F04704780546DF
:1041A000122C0E4688B017D8012C18D9A31E102B3C
:1041B00015D8DFE813F0160014002F0014005A0081
:1041C00014000E0114009F001400140014001400C9
:1041D000140051011400CC00522C00F0DE800624A3
:1041E0003FE0022940F0B681B0F80130B34A4FF405
:1041F0008040B349FFF7B2FCB5F80140B4F5007F49
:1042000028BF4FF400742046FFF7DCFDAD4B1C8047
:10421000002426E0042924D1B0F80330AA4A0093F0
:10422000B0F80130A9494FF48040FFF797FCB5F88A
:10423000017006ADBEB229463046FFF709FF0446BD
:1042400018B1A04B5F800A240BE09DF81C3031466A
:10425000022B08BF012095E80C0018BF0220FFF7D1
:10426000CDFD204608B0BDE8F08702278E1FB6B20C
:104270000196B0F80330964A0093B0F801309549A2
:104280004FF48040FFF76AFC05F10508EB1D01962D
:1042900000938DF81470CDF810804246059BB5F858
:1042A0000310B5F80100FFF7E0FE4FF6FF76B042CD
:1042B000044606D1AA786B7843EA0223814A5380E8
:1042C000C1E70023CDE90033CDF818808DF81C70CC
:1042D00008AB0130314613E90C0080B2FFF7C5FE90
:1042E0000146B0421CBF00F1FF3189B22046FFF702
:1042F000A9FD8DE7022940F02D81B0F80130764A02
:104300004FF480407549FFF729FC3146B5F80100AC
:10431000FFF7FDFE6B4E044628B16B78AA7843EA9E
:10432000022373809DE733880146013BADF81030CE
:10433000B5F8010004AB06AAFFF7FBFE044600280F
:10434000EBD1BDF810100698FFF79CFD89E78E1E93
:10435000B6B20096B0F80130614A4FF4804061492E
:10436000FFF7FCFB0821B5F80100FFF7D0FE04467B
:1043700030B1AA786B7843EA0223524A538070E73F
:1043800001463346B5F80100EA1CFFF7A7FE0446D4
:104390000028EED1FFF790FD63E78E1EB6B20096BF
:1043A000B0F80130504A4FF480404E49FFF7D6FB39
:1043B0000421B5F80100FFF7AAFE044600287FF4A7
:1043C00027AF01463346B5F80100EA1CFFF786FE29
:1043D00047E70E1FB6B2022E02D0102E40F0BA8070
:1043E0000024B5F803304FF480400093B5F8013055
:1043F0003E4A3649FFF7B2FBCDE900446B1D0693F8
:104400008DF81C6008AB13E90C00B5F80310B5F883
:104410000100FFF72AFE4FF6FF7398420646294F28
:1044200005D16B78AA7843EA02237B800BE73B88AF
:104430002146043BADF80E3004AA0DF10E03FFF740
:1044400078FE044608B17E800BE73046BDF80E20AA
:104450000499FFF749FD04E70E1FB6B2022E01D002
:10446000102E77D10024B5F803304FF4804000932C
:10447000B5F801301E4A1549FFF770FBCDE900443D
:1044800005F1050AF6B28DF81460CDF810A0524679
:10449000059BB5F80310B5F80100FFF7E6FD4FF6F0
:1044A000FF7948450746DFF81C8023D16B78AA784E
:1044B00043EA0223A8F80230C5E600BF35BF00007A
:1044C000FDBC0000FC13002022BF00007ABE0000EB
:1044D0000FBF000098BE000007BF0000C1BE000073
:1044E000FEBE000067BD0000F5BE0000E7BE000094
:1044F000D4BE0000CDE90044CDF818A006AC8DF87C
:104500001C60013094E80C00494680B2FFF7ADFD15
:104510000546B8F800304845A3F1060318BF00F17E
:10452000FF352246ADF80E304FF0000138460DF150
:104530000E0318BFADB2FFF7FCFD044610B1A8F89A
:1045400002708EE629463846BDF80E30069AFFF70F
:10455000EBFC86E6042484E60022014B1A607047D7
:10456000181600200023F7B501F1080421461A4669
:10457000ADF80430ADF8060051F8080C083198B9D0
:104580000BB1ADF80420042501270DEB05062A46E2
:104590003146384600F0DEF80028F8D02D1AADB2CA
:1045A00006445DB10027F2E751F80C3C1A4492B280
:1045B0000123E1E734F8045C35B9083454F8086C99
:1045C000002EF7D103B0F0BD2A463146002000F09E
:1045D000C1F80028F0D02D1AADB20644ECE7000077
:1045E00003291FB51CD90288131D994218D304D87A
:1045F0004388042B03D0062B06D0012011E011467E
:104600000430FFF7B5FCF8E70022CDE90222064AA4
:1046100069460092022218460192FFF7A3FFECE7D9
:10462000002005B05DF804FB1010002037B5002213
:104630000DF10700114600F06DF89DF807300C4CA5
:104640000BB10023236021680A4DC1F5017292B2BB
:1046500029440DF1070000F05DF821680144284667
:104660002160FFF7BDFF08B10023236003B030BD18
:10467000181600201414002010B504464FF480735F
:1046800000210E4A0E4800F0A9FD4FF4807300216E
:104690000C4A0D4800F0A2FD204600F05DFB00F042
:1046A00031F900F025FF00F08DFE830705D500F0FD
:1046B000A5FCBDE8104000F063BA10BD4C17002007
:1046C00034170020341600201C16002008B51346AD
:1046D0000A460146024800F040FEC0B208BD00BFD5
:1046E0003417002008B5034800F081FD003818BFDA
:1046F000012008BD3417002000F062BF00F072BF37
:1047000008B500F00FFF002008BD08B501F036F82D
:10471000002008BD73B50E4604460192FDF7A2FEC7
:10472000214605463246019B044800F016FE044629
:104730002846FDF79BFE204602B070BD1C160020E7
:1047400008B5034800F053FD003818BF012008BD2C
:104750001C16002073B50E4604460192FDF782FE3A
:10476000214605463246019B044800F0C1FD04463F
:104770002846FDF77BFE204602B070BD34170020AE
:10478000FFF77ABF10B50C460146044800F00FFE53
:10479000A04234BF0020012010BD00BF1C16002025
:1047A00073B50E46114605460192FFF7EBFF04462E
:1047B00028B132462946019B024800F099FD204667
:1047C00002B070BD1C16002000F004BD00F004BD56
:1047D00010B5034CA07900F0E3FF0023236010BD67
:1047E0004C1800201FB50B4C0B4AA37A0B490393BE
:1047F000637A4FF480500293237A0193E379009314
:10480000A379FFF7ABF9A01D00F04EFF0023236052
:1048100004B010BD4C180020F9C0000044BF0000D7
:104820001FB5104C104AB4F80D304FF4805002936D
:10483000B4F809300D490193A3790093B4F8073017
:10484000FFF78CF9B4F80710A07900F05FFFB4F817
:104850000D10B4F8090000F06DFF0023236004B0D0
:1048600010BD00BF4C180020CBC000006DBF000081
:10487000014B9980186070474C1800200022014BB2
:104880001A6070474C180020034A13681BB19288C5
:10489000824200D1184770474C180020014B187015
:1048A0001846704760180020013100F05BBF00001F
:1048B000162838B503464FF0020514BF03461323EC
:1048C0000B4C0C4A4FF480500B4963702570FFF776
:1048D00045F92946204600F045FF01F0A1F8074BB5
:1048E000074A05301A60627898809A7138BD00BF17
:1048F0006018002093C00000A4BF00004C180020E6
:10490000D14700007047000030B5044603787B4A69
:104910004FF480507A4985B0FFF720F923780C2BAB
:104920000AD80C2B0BD8DFE803F05A3F790A0A0AA1
:104930000A0A890A0A0A1600142B00F0A8802046E9
:1049400000F024F9002867D1072223786D4802215E
:104950000270437023E0A3884FF480500193638872
:10496000694A009363786949FFF7F8F84FF0FF321E
:10497000644C0C23A2700222E27000222370627148
:10498000012340F2FF2263702371604900924FF4CB
:1049900080505F4A0193FFF7E1F80621204605B0F9
:1049A000BDE8304000F0DEBEE3885A4A5A494FF471
:1049B0008050FFF7D3F8E179A379584A43EA0123FD
:1049C00093801346564943F8061BD4F80110C2F8E9
:1049D0000610B4F805209A80E2799A711CE0638988
:1049E000504A4D494FF48050FFF7B8F8E27AA37A65
:1049F0004A4943EA02238B800B464B4A43F8062B75
:104A0000D4F80120C1F80620D4F805205A60B4F883
:104A100009201A81E27A9A7205B030BD6378434A60
:104A20004FF480504249FFF799F800F0F9FF3B4BF3
:104A3000404A05301A6098806278CEE7D4F8053095
:104A4000D4F801203C49CDE900234FF480503B4A83
:104A5000FFF784F800F09EFAD4F80130294C0340A7
:104A600003F0FF0320F0FF0018430925234600222E
:104A700003F8015BC4F801002F495A60CDE9000238
:104A80004FF480502E4AFFF769F8294686E7B4F8BC
:104A900007302C4A0293B4F805304FF4805001934C
:104AA000B4F8033028490093B4F80130FFF756F802
:104AB000B4F80310B4F8010000F04AFE1523114CBD
:104AC0006FF0270223700723E2702371E2712372D3
:104AD00000216FF004004FF4FB62FB236070A170B3
:104AE0006071A1714FF48050CDE9013216490092F6
:104AF000164AFFF733F8092150E700BF8AC00000CB
:104B0000BABF0000601800207FC00000CBBF0000CB
:104B100021C1000013C10000FCBF00004C180020A0
:104B2000E5470000E5C0000021480000BEC00000CD
:104B3000A4BF0000D14700000CC00000B3C00000BB
:104B4000A4C0000075C0000025C0000067C00000C0
:104B500010B5084B4FF480509C79074A234607490B
:104B6000FEF7FCFF204600F0EDFDBDE81040FFF72A
:104B700085BE00BF4C1800208EC1000030C100006F
:104B80000122014B1A7070476C180020244B73B53A
:104B90001E7804462EB10378162B05D0182B27D08B
:104BA0000026304602B070BD83781E4A00934378D9
:104BB0001D494FF48050FEF7D1FF6378A478172089
:104BC0001C4004F00304022C18BF0124FFF766FE0A
:104BD00005464470847023464FF48050134A1249AE
:104BE0000094FEF7BBFF02212846FFF75DFED8E7E1
:104BF000B0F803300E4A019383780E49009343784E
:104C00004FF48050FEF7AAFFB4F803100A48FFF7EC
:104C10002FFED4F80120094BC3F80620C1E700BFDE
:104C20006C180020B9C1000040C10000AEC10000F6
:104C3000A1C1000060C10000514B00004C180020D1
:104C400013B50D4B01281B880C4CADF80030ADF8A6
:104C5000043002BF02238DF8003004236946206827
:104C600008BF8DF8043001F0D5FA206801A901F0E1
:104C7000E7FA02B010BD00BFC0C1000070180020EC
:104C800070B5334C11464FF4867086B01E461546FB
:104C9000FEF767FF236933B929464FF48370FEF7A7
:104CA00060FF06B070BDA5F10802324321D101AA10
:104CB0000321206801F034FB636860615B7A04F1D2
:104CC000180123769DF804300220DA1F5342534125
:104CD000627E63F30002039B6276E361BDF80630F7
:104CE00063832369984701220021206801F01EFB9D
:104CF000D7E705F17F42324305D10021012006B0FC
:104D0000BDE87040184715F4A04209D04FF48071F7
:104D10004FF48170FEF725FF002103202369EEE7A1
:104D200005F4A0631A4308D001214FF48170FEF707
:104D300018FF0021FF202369E1E705F0A04213439B
:104D400019BF012140F2011029464FF48370EEE7AC
:104D50007018002000000000F0B506468BB03A48FD
:104D600000F0D5FFFEF7ECFF3848394B0021036017
:104D7000384B394C436000F02FFF31A3D3E90023B7
:104D8000CDE900234FF0FF334FF0FF32206001F0F8
:104D900059FA02224FF0FF31206801F055FA3C2306
:104DA00094220027CDE90332059396232B4D03A9C6
:104DB0002068CDE907770997069301F02FF8294677
:104DC00020682F7001F068FA28B101232946206875
:104DD0002B7001F061FA206801F0E5FA2978B6F944
:104DE0000020206800F088FE0146206801F041FAAA
:104DF00075681B4BD5B91846FEF790FFA37B65F38A
:104E00000003A373202310222384164B83F821234D
:104E100083F8222383F8262383F8252383F823238A
:104E200083F8202383F824230BB0F0BD2868A0600A
:104E3000A988AA7999809A71E4E700BFAFF300804E
:104E40000855005100000000690345ECA01800203F
:104E5000814C0000941800207018002012100020CF
:104E60007818002000E100E00A46014602484FF4AD
:104E70000073006801F036BA70180020F0B50446DF
:104E8000164D174A6B68807A5B7A85B0D75C0E4600
:104E9000FFF7D6FE237AB9B2022B0CD10023286883
:104EA0001A4600F0C3FEA8B10021FF20334605B02A
:104EB000BDE8F0401847002220688DF80C300290C1
:104EC0000092286802ABADF80D208DF80F2000F09D
:104ED000BBFEE8E72E6105B0F0BD00BF70180020F2
:104EE000C2C100002DE9F04104461D4D1D4A6B680A
:104EF0000E465B7A86B0D15C807A0191FFF7A0FE06
:104F0000237A4FF00108022B02BF002302930123F2
:104F10008DF80C30636818BF226803F164030493B2
:104F2000637A4FF0000418BF029201998DF8143093
:104F300002AA234628688DF815808DF8164000F0E7
:104F4000A9FE074642462146286801F0EFF92FB135
:104F50002146FF20B04706B0BDE8F0812E61FAE798
:104F600070180020C2C1000008B500214FF4857000
:104F7000FEF7F7FD0022044B03211A611868012295
:104F8000BDE8084000F04EBE701800200048704791
:104F900078180020014B188C704700BF7018002053
:104FA0007FB502238DF80A30064B5A8B59690332BC
:104FB000ADF80820186801AA01F0B6F9019807B009
:104FC0005DF804FB7018002008B5014640F205109A
:104FD000FEF7C7FD08BD0000002313B5064C009383
:104FE000437AD0E900216060206801F00AFA00F0FD
:104FF0000DF802B010BD00BF70180020024A138CDB
:1050000043F48073138470477018002038B50D4C3A
:10501000238CDB050CD563680B4D1B7A2A789A42EA
:1050200006D0012B05D0022B07D063681B7A2B70AA
:1050300038BD206801F0BAF9F7E7206801F0BCF943
:10504000F3E700BF70180020B018002038B50C46F8
:10505000114625680144AD1A2A46FEF72EFC25604C
:1050600038BD000010B50024064B1C60064B1C70B8
:1050700000F09AF8B0FA80F3044A5B091370044B0D
:105080001C7010BDB41C0020B91C0020BA1C0020EC
:10509000B81C002010B5074B1C782CB9064B1B78A8
:1050A00033B100F089F8044600F08EF8204610BDB8
:1050B0008124F9E7B91C0020BA1C002038B50A4643
:1050C0000F4903460978C1B10E49087850B90E4C12
:1050D00024783CB90D4C20681518B5F5806F02D9BD
:1050E0008220087038BD1946094B1844FEF7D8FBDA
:1050F0002560BDE8384000F025B88120F2E700BF08
:10510000BA1C0020B91C0020B81C0020B41C0020D0
:10511000B4180020012908B512D103781BB9BDE8E5
:105120000840FFF79FBF032B03D1BDE80840FFF7FE
:10513000B1BF042B04D11320FEF7ACFC002008BD46
:105140000620FCE738B5134B134D1A782968022A5C
:105150000ED0032901D8002038BD104A1068104A2B
:10516000904203D084200F4B1870F5E702221A708A
:105170000A48FBF787F804462A6807490748FFF7FB
:1051800065FF002CE7D041F207039C42E3D0852065
:10519000E9E700BFBA1C0020B41C0020B4180020AE
:1051A000EB17A603B91C002008B5FBF785F800280B
:1051B00014BF8520002008BD08B5FBF78DF8002836
:1051C00014BF8020002008BD0022014B1A707047D8
:1051D000BA1C0020FBF708B8FBF716B8838200233F
:1051E000C0E90022826081750382C3757047837DA8
:1051F000DB0701D5808A7047D0E901239B1A44BFA1
:10520000828A9B1898B27047014608B5FFF7EFFFF6
:105210008B8A181A80B208BD2DE9F0411646054662
:10522000FFF7E5FFB04228BF304686B20F46B046D2
:10523000B8F1000F09D12EB1AB7DDA0744BF23F0DE
:105240000103AB753046BDE8F0812B68AC8A696814
:105250001C44641AA4B2444528BF4446384622463A
:10526000FEF71EFB6A682B68A98A224419448A4209
:1052700038BF13462744A8EB04041FFA84F86B6078
:10528000D6E72DE9F041164605460F46FFF7BCFF6D
:10529000B04228BF304686B2B046B8F1000F0BD1FD
:1052A0003EB1D5E901329A4202BFAB7D43F0010322
:1052B000AB753046BDE8F0812B68AC8AA8681C4409
:1052C000241AA4B2444528BF444639462246FEF774
:1052D000E7FAAA682B68A98A224419448A4238BF8F
:1052E00013462744A8EB04041FFA84F8AB60D4E704
:1052F000F8B5044616461F46F9B1FFF785FF0128A9
:1053000029D9E37D63B1E068658A05702D0A07D06D
:105310002268A38A01301344984228BF1046F4E75C
:1053200000236382A3680222E360204604F1120195
:10533000FFF7A7FFE37D0133E3753A463146204688
:10534000FFF79FFF638A03446382E37D13B9238AD7
:1053500003442382F8BD0020FCE7F8B51F46038A0A
:1053600004461646EBB9C57DDDB10123013D0B7046
:105370000222C57500F11001FFF74EFFE37D9BB1DE
:10538000228A3146BA4228BF3A462046FFF744FFF8
:10539000238A1B1A2382E37D13B9638A1B1A638253
:1053A000F8BD00230B70EBE7638A2382E8E710B5B2
:1053B0000C46FFF729FF24B1022892BF00200238D3
:1053C00080B210BD032070471FB5124C1148637A9C
:1053D0000133DBB2272B88BF25236372FFF7FCFD67
:1053E0000023CDE90233E368627C01930123617DF0
:1053F000D207094801F102018DF80C3048BF8DF841
:105400000E30FFF731FD054901A8FFF737FD04B065
:1054100010BD00BFBC1C0020D01C00204D5400005B
:1054200038B50D460446FFF7B1FD8379014603F018
:105430000103AB4207D106222046FEF721FAB0FA5B
:1054400080F0400938BD0020FCE70000022810B5BC
:105450001BD002D8012805D0FEE7032843D0FF283F
:1054600041D0F9E7214C637C990707D5FFF77CFD14
:10547000FFF7AAFF637C6FF341036374637CDA0771
:1054800030D4BDE81040FFF79FBF4B78DB072AD52B
:105490004C68217801F00F03032B11D0052B22D18A
:1054A000C90904F10800FFF7BBFFD8B1FFF75CFDA5
:1054B000FFF776FD01462046BDE8104000F0B6BA81
:1054C000C90904F10800FFF7ABFF58B1074C94F885
:1054D0003D1004F13C000231FFF7C6FC637C43F051
:1054E0000203637410BDFFF73FFDCAE7BC1C002038
:1054F00010B5094C00215C2204F10800FEF7F7F911
:1055000042F210730549E360054BC4E9001342F20F
:105510000153238110BD00BFBC1C0020D6BE898E64
:105520005555550038B50446FFF71EFD002C3FD0F9
:10553000204C257C627CB5FA85F35B0963F300029D
:105540006274FFF723FD837905F00F05C3F30003B1
:1055500045EA8315237D23F04F031D43637D2575A5
:105560000BB9062363750368C4F816308288124BA2
:105570009A80FFF70BFD837994F83C20C3F3000376
:105580009B0143F0040322F04F02134384F83C30A4
:1055900094F83D3013B9062384F83D300368C4F80D
:1055A0003E308288054B9A80BDE83840FFF70CBF3B
:1055B00038BD00BFBC1C0020D21C0020FA1C0020FB
:1055C00020290A4608B509D8054B06315975014608
:1055D00003F11C00FEF764F9002008BD1220FCE76F
:1055E000BC1C002020290A4608B50AD8064B063103
:1055F00083F83D10014603F14400FEF751F9002005
:1056000008BD1220FCE700BFBC1C00200A20D0B55A
:105610000B4CE38C584305F0F5FE0646A08C0F4674
:1056200005F0F0FE0022074B05F056FF02460B4640
:105630003046394606F07AF806F060F92083D0BD8E
:10564000201D00200000F43F1FB5154C40F601005E
:105650002189FEF786FAA37E5A061FD423F007039A
:1056600043F001032089A376FFF70EF9A37A04F132
:105670000C00234493F82A306375FFF7ADFCD4E99E
:105680000032A3EB520103EB520302934FF4803339
:10569000019101A803490393FFF724FC04B010BD56
:1056A000201D00202D5800000022134630B58BB07D
:1056B000D910415C03F007042141CC0742BF02F13D
:1056C0002801694401F8283C03F1010348BF013275
:1056D000252BEDD100230C4CD910415C03F00705BC
:1056E0002941C9075FBFB3FBF2F102FB1131283139
:1056F00069444CBFD9B211F8281C0133252B04F89A
:10570000011BE9D10BB030BD4A1D002010B540F29D
:10571000E244074A6043136800F5807004FB0131DE
:10572000536801EB500118441160506010BD00BF78
:10573000201D0020024B9884D984FFF767BF00BF6B
:10574000201D0020014B1875704700BF201D002050
:10575000C908884228BF0846014B1885704700BF1A
:10576000201D0020044B5A6D22B95865A3F858102B
:105770000120704700207047201D002010B504460E
:105780000346054A4FF400600449FEF7E7F9204656
:10579000BDE81040FFF78CB836C20000EAC1000037
:1057A00010B504460346084A4FF400600749FEF767
:1057B000D5F9074A2046BDE81040937E43F04003E8
:1057C0009376FFF703B800BF27C20000EAC10000CC
:1057D000201D002010B5144CA37E5B0623D4FFF7D8
:1057E000C3FB40F2E243A18C226803FB0122A37AAF
:1057F000226094F84F2013442522B3FBF2F002FB01
:1058000010332289A372013222810A22636802FBCB
:1058100001336360238B5A1E228323B9BDE81040F5
:105820000820FFF7BDBF10BD201D002002282DE974
:10583000F74380460E460BD003D8012800F0DC80E9
:10584000FEE7032800F0DE80FF2800F0DB80F7E7AA
:105850004F78714C17F0010763D14FF0FF3140F6DC
:105860000300FEF77EF93D46A37E6C4F13F0200F38
:1058700012D0616D6FF34513A376002900F09E806E
:105880003B7894F8582043F003033B707A70B81CBF
:10589000FEF706F800236365FEF724FFA37E60F39E
:1058A0004103C3F30012C3F3C001920042EAC102F4
:1058B000A37642EA00133A7803F01C0322F01C029C
:1058C00013433B7040F602003988FEF74AF97978B5
:1058D00052480231C9B2FFF7C7FAA37E7668D907EA
:1058E00009D56FF30003A37600236360FFF758FB2D
:1058F0002060FFF78BFE002D00F08B80337803F0E3
:105900000303022B05D0032B6FD0012B40F08180C5
:10591000002528467278B11C03B0BDE8F043FEF7BD
:105920003FBFD1F8049040F60300B9F80010FEF72D
:1059300018F999F80030A27EC3F3001363F38202D2
:1059400099F80030A276C3F3C001C2F3001291426D
:105950002FD103F00303022B29D0032B08D0012BF6
:1059600027D1002099F8011031B3FEF70BFF07464D
:105970003D46A27E99F80010C2F3C003C1F3800136
:10598000994208D083F00103DB0043F0200322F0AA
:1059900028021343A376002F3FF466AFA37EC3F320
:1059A000001282F0010262F30413A3765CE738462A
:1059B000D8E700252F46DCE70D46DAE794F82820E3
:1059C000B91C0DF10700FEF781FE58B19DF80730B4
:1059D000002B08BF4FF001083B78787068F3010393
:1059E0003B7059E74FF00108F6E77178B01C03B03F
:1059F000BDE8F043FEF788BF074B9B7E9A0708D4AB
:105A00005B0706D4FFF7E6FE03B0BDE8F043FFF7FF
:105A10001BBE03B0BDE8F083201D00207C1D0020CC
:105A2000014B1889704700BF201D0020F7B5274D96
:105A300004460E465C2200212846FDF758FF20232D
:105A4000AB7605232B83627E237E012743EA022364
:105A5000AB84627F237F04F11E0043EA0223EB84C0
:105A600094F82330C3F3040385F84F3094F82330BF
:105A7000C3F3421385F850301B232B85FFF714FE28
:105A8000D4F80E30E27CEB60A37C2E6043EA022364
:105A9000227D2F7543EA02432B6195F84F30607DDC
:105AA000AB72E18A3944FFF731FEFFF7CDFDEB8C95
:105AB000074A084900934FF40060AB8CFEF74EF89C
:105AC0002046FEF781FE384603B0F0BD201D0020C1
:105AD0001AC20000FDC1000038B50446054D00F0B3
